S0190000506F776572446973747269627574696F6E2E73726563FE
S11300000C9456000C9473000C9473000C947300BD
S11300100C9473000C9473000C9473000C943D02C4
S11300200C9447020C9473000C9473000C947300AA
S11300300C94CC010C9473000C9473000C94730016
S11300400C9473000C9473000C9481010C94730051
S11300500C9473000C9473000C9473000C94730050
S11300600C9473000C9473000C9473000C94730040
S11300700C9473000C9473000C9419010C94730089
S11300800C9473000C9473000C9473000C94E500AE
S11300900C94B2010C9473000C94A3010C9473009F
S11300A00C9473000C9473000C94730011241FBE01
S11300B0CFEFCDBFDFE2DEBF10E2A0E0B0E2EAE6C0
S11300C0F8E102C005900D92AE3BB107D9F720E2EA
S11300D0AEEBB0E201C01D92A83DB207E1F70E9469
S11300E07A030C94330C0C940000E0E5F0E08BE40C
S11300F08283808188608083818183FD09C0A0E43C
S1130100B6E092E015969C931597818183FFFACF10
S113011082E08093460688ED84BFE0E5F0E088EC59
S11301208583808180618083818184FD09C0A0E40E
S1130130B6E092E015969C931597818184FFFACFDF
S113014082E08093460688ED84BFE0E4F0E010820C
S113015084BF84E080830895CF93DF93E0E4F6E0E6
S113016082E0818391E0918320E2218334E0328331
S113017048E0428348E1428B438BC0E0D6E09A8357
S11301808A83A0E6B6E012969C93129712968C93FB
S1130190129712963C9312973A8330E112963C934D
S11301A0129711962C93119719968C9319971A9666
S11301B03C931A9754969C935497968386832683EC
S11301C016962C93DF91CF9108951F920F920FB63C
S11301D00F9211248F939F9380E180936C068091FA
S11301E00020813081F4109260081092610810920E
S11301F0002087EC90E00197F1F700C0000082E056
S1130200809374060FC08091600890916108880FF4
S1130210991F8093BE209093BF2081E0809300209B
S1130220809374069F918F910F900FBE0F901F9033
S113023018951F920F920FB60F9211248F939F93CC
S1130240EF93FF93F89484E080930C068091CF2081
S1130250813061F48091080682FD0BC01FC080913B
S1130260080682FF0DC01AC078941CC08823B9F315
S113027015C010920804109209041092CF20F4CFF4
S11302808091080490910904EEECF0E28483958354
S113029086819781019686839783E6CF82E0809357
S11302A04506E2CFFF91EF919F918F910F900FBE82
S11302B00F901F901895E0E0F8E087E0808389E0D4
S11302C09DE386A397A3118281E08683E0E4F8E0AE
S11302D085E08083118220EE3EE226A337A392E0DC
S11302E09683E0E4F9E08083118280E197E286A3BB
S11302F097A383E08683878386EB93E080A791A707
S113030008951F920F920FB60F9211248F939F930B
S1130310EF93FF93E0E4F8E084858160848781E0D3
S113032080930020809374068CED95E08093BE202A
S11303309093BF20FF91EF919F918F910F900FBEEB
S11303400F901F9018951F920F920FB60F921124C1
S11303508F9380E2809366068F910F900FBE0F906B
S11303601F9018951F920F920FB60F9211248F931E
S1130370EF93FF9380E280936506E0E4F9E08485DF
S11303808160848710A211A2FF91EF918F910F9049
S11303900FBE0F901F9018951F920F920FB60F92D9
S11303A011242F933F934F935F936F937F938F9376
S11303B09F93AF93EF93FF932091C0203091C1207E
S11303C04091C2205091C3206091C4207091C520F7
S11303D08091C6209091C720A1E00E94200920931B
S11303E0C0203093C1204093C2205093C320609317
S11303F0C4207093C5208093C6209093C720E0E06A
S1130400F8E084858160848781E08093C820FF912F
S1130410EF91AF919F918F917F916F915F914F91E8
S11304203F912F910F900FBE0F901F901895E0E011
S1130430F4E089E0808385E08283A0E5B0E08C91DC
S113044084608C938FE79CE00197F1F700C0000073
S1130450A0E4B0E08CE013968C93139713968C91E0
S11304601397816013968C9380E090E4848795873A
S113047080E09FEF8287938708951F920F920FB6B3
S11304800F9211240F900FBE0F901F9018951F927A
S11304900F920FB60F9211248F93EF93FF93E0E026
S11304A0F4E01086118682E083831092D2201092A9
S11304B0D320FF91EF918F910F900FBE0F901F905B
S11304C018950895AAECB1E092E09C93E82FF0E02F
S11304D084911C920895CF93DF93C0E0D2E082E12F
S11304E0898380E28A831B8287E08C8380E20E9476
S11304F062028C8781E20E9462028D878FE79CE012
S11305000197F1F700C0000082E088A381E489A389
S11305101AA281E08883DF91CF910895E0E0F2E0B0
S113052081E481A380A1806880A38FE79CE0019788
S1130530F1F700C00000868180FFFDCFE0E0F2E02B
S113054081E0868384A195A10895E0E0F2E089E446
S113055081A380A1806880A3868180FFFDCFE0E035
S1130560F2E081E0868384A195A108952F923F92C1
S11305704F925F926F927F928F929F92AF92BF92AF
S1130580CF92DF92EF92FF920F931F93CF93DF935B
S11305900F2EF4E66F2E712CF02D412C512C812C52
S11305A0912CD0E0C0E0212C312C0E948E02B92E77
S11305B0A82E192F110F110B242D352D482D592D2F
S11305C06D2F7C2F822D932DC12ED12EE12EF12E55
S11305D0012F0E941709422E532E842E952ED62FBA
S11305E0C72F282E392E81E0681A7108F1F60F2ED4
S11305F0F4E6AF2EF02DB12CC12CD12CE12CF12C32
S113060000E010E0242D352D482D592D6D2F7C2F21
S1130610822D932D0E94BA08622F732F80E090E000
S11306200E943B0729E83DE04DE95AE30E94C907CF
S113063024E637E649E15BE30E94270620E030E048
S113064048E452E40E94C907DF91CF911F910F91B2
S1130650FF90EF90DF90CF90BF90AF909F908F90DE
S11306607F906F905F904F903F902F900895CF921E
S1130670DF92EF92FF92CF93DF93C2E3D0E0C12CDD
S1130680D12C76010E94A502092E000CAA0BBB0BEB
S1130690C80ED91EEA1EFB1E2197A1F7C701B60199
S11306A022E330E040E050E00E949608B90180E087
S11306B090E00E943B0729E83DE04DE95AE30E949F
S11306C0C90724E637E649E15BE30E94270629E2ED
S11306D03CE54FE05FE30E94930623E333E34FE1FD
S11306E051E40E942706DF91CF91FF90EF90DF90B5
S11306F0CF900895CF93DF9300D000D0CDB7DEB76D
S11307000E94AC000E9475000E94FD050E945B01DE
S11307100E946B020E9417020E946102E0EAF0E06C
S1130720828181608283828182608283828184600B
S113073082837894EEECF0E281E08183128213826A
S11307401682178283E090E20E94790586E190E2A6
S11307500E94790589E290E20E9479058CE290E298
S11307600E94790500EC18E00F2EF0E42F2EF6E03D
S11307703F2EF02D812C6894992493F80F2EFAE0E3
S11307804F2E512CF02DCC24C3940F2EF2E3BF2E08
S1130790F02D6894772475F86894662461F80F2E18
S11307A0F5E0AF2EF02D0F2EF0E4EF2EF9E0FF2E42
S11307B0F02D8FE39FE10197F1F700C00000F801ED
S11307C0818188230CF06DC0D08082EE8D0D84323F
S11307D018F48D2D0E948905F9E7DF1203C0F10199
S11307E0758210C0FEE6DF1203C0F10176820AC0F2
S11307F0F6E4DF1207C01092CB201092C9201092A9
S1130800CA204FC089EB8D0D813108F04AC0C092D7
S1130810CB20BD9CC00111248259994080930120B2
S113082090930220F101808582FD1FC0F40186A10E
S113083097A185339C4039F482E390E08093C920EA
S11308409093CA202EC0F40186A197A189309D43BC
S113085029F44092C9205092CA2023C082E390E038
S11308608093C9209093CA201CC0F40186A197A14B
S113087085339C4029F44092C9205092CA2011C06B
S1130880F40186A197A189309D4339F482E090E078
S11308908093C9209093CA2004C04092C9205092EA
S11308A0CA208091C109882384F4E0ECF9E08081B6
S11308B08A3029F4C092CD20A092CC2006C0843185
S11308C021F46092CD20A092CC208091CB2088236B
S11308D0A1F0609101207091022080E090E00E94DC
S11308E03B0720E030E040E05FE30E94C9070E943C
S11308F00C07F70160A771A713C06091BE20709127
S1130900BF2080E090E00E943B0720E030E040E020
S11309105FE30E94C9070E940C07F70160A771A753
S11309208091C820882309F444CF1092C820F40190
S113093010A211A20E94B60269837A838B839C83DE
S11309400E9437036B017C01109208041092090481
S11309501092CF20E0E0F4E0A0E0B6E08FE891E070
S11309600197F1F700C000008085918582319140A4
S113097028F418968C91189782FDF0CFE0E0F4E00B
S1130980A0E0B6E08FE891E00197F1F700C0000025
S1130990808591858231914028F418968C9118971E
S11309A082FFF0CF1092080410920904E0E0F4E012
S11309B0A0E0B6E08FE891E00197F1F700C00000F5
S11309C0808591858231914028F418968C911897EE
S11309D082FDF0CF80910804909109040F2EFEEC63
S11309E0AF2EF0E2BF2EF02DF50184839583248190
S11309F0358144E6429FC001439F900D112461E17B
S1130A0071E00E94820860838681978101968683C3
S1130A10978384819581C701B6010E94A30583EB66
S1130A2090E20E94790560E070E0CB010E94A3058A
S1130A3083EB90E20E94790569817A818B819C81A4
S1130A400E94A30583EB90E20E94790560E070E0C8
S1130A50CB010E94A30583EB90E20E94790560E03C
S1130A6070E0CB010E94A30583EB90E20E9479051C
S1130A70F501808190E00E948C05F501808181114F
S1130A8004C080E090E00E948C0583EB90E20E9419
S1130A9079058091CD2090E00E948C0580EB90E256
S1130AA00E9479058091CC2081508093CC208111C3
S1130AB002C01092CD208091C9209091CA20009745
S1130AC031F001978093C9209093CA2002C01092FC
S1130AD0CB20F101808583FD06C085E39CE0F40111
S1130AE086A397A350CE89E09DE3F40186A397A340
S1130AF04ACEFC012081222359F0DC011196E0EC5E
S1130B00F8E0918195FFFDCF20832D912111F9CF3C
S1130B1008958093C0090895CF93DF93CDB7DEB7CE
S1130B206497CDBFDEBF4AE0BE016F5F7F4F0E9476
S1130B302C09CE0101960E9479056496CDBFDEBFD3
S1130B40DF91CF9108958F929F92AF92BF92CF92EF
S1130B50DF92EF92FF920F931F93CF93DF93CDB762
S1130B60DEB7C456D109CDBFDEBF4B015C010E9484
S1130B7005076B017C01072E000C880B990B0E9462
S1130B803D079B01AC01C501B4010E94260620E08B
S1130B9030E44CE156E40E94C9070E9436080E94E2
S1130BA005079B01772324F422273327261B370BC1
S1130BB03F932F93DF92CF9285EB90E29F938F9395
S1130BC08E010F5F1F4F1F930F930E945109C8019D
S1130BD00E947905CDBFDEBFCC59DF4FCDBFDEBF4C
S1130BE0DF91CF911F910F91FF90EF90DF90CF9005
S1130BF0BF90AF909F908F900895E0E4F6E040E8B6
S1130C00418330E43283868580618687E0ECF8E0B6
S1130C1023E0248392E29683178283818061838315
S1130C20838188608383E0E6F6E0418332838685AE
S1130C3080618687E0ECF9E02483968317828381C0
S1130C408061838383818860838308955058BB27A0
S1130C50AA270E943E060C948F070E94810738F051
S1130C600E94880720F039F49F3F19F426F40C946D
S1130C707E070EF4E095E7FB0C947807E92F0E94B9
S1130C80A00758F3BA17620773078407950720F083
S1130C9079F4A6F50C94C2070EF4E0950B2EBA2F46
S1130CA0A02D0B01B90190010C01CA01A00111246E
S1130CB0FF27591B99F0593F50F4503E68F11A161A
S1130CC0F040A22F232F342F4427585FF3CF4695AB
S1130CD037952795A795F0405395C9F77EF41F16CD
S1130CE0BA0B620B730B840BBAF09150A1F0FF0F97
S1130CF0BB1F661F771F881FC2F70EC0BA0F621F83
S1130D00731F841F48F4879577956795B795F79572
S1130D109E3F08F0B0CF9395880F08F09927EE0F07
S1130D209795879508950E94A7060C948F070E94B3
S1130D30880758F00E94810740F029F45F3F29F0AA
S1130D400C94780751110C94C3070C947E070E94ED
S1130D50A00768F39923B1F3552391F3951B550B21
S1130D60BB27AA2762177307840738F09F5F5F4F7A
S1130D70220F331F441FAA1FA9F335D00E2E3AF0B9
S1130D80E0E832D091505040E695001CCAF72BD0D1
S1130D90FE2F29D0660F771F881FBB1F2617370722
S1130DA04807AB07B0E809F0BB0B802DBF01FF2754
S1130DB093585F4F3AF09E3F510578F00C947807B2
S1130DC00C94C3075F3FE4F3983ED4F3869577957C
S1130DD06795B795F7959F5FC9F7880F911D96950D
S1130DE0879597F90895E1E0660F771F881FBB1F69
S1130DF0621773078407BA0720F0621B730B840B16
S1130E00BA0BEE1F88F7E09508950E940C076894CA
S1130E10B1110C94C30708950E94A80788F09F5746
S1130E2098F0B92F9927B751B0F0E1F0660F771F0A
S1130E30881F991F1AF0BA95C9F714C0B13091F000
S1130E400E94C207B1E008950C94C207672F782F5F
S1130E508827B85F39F0B93FCCF3869577956795C5
S1130E60B395D9F73EF490958095709561957F4F31
S1130E708F4F9F4F0895E89409C097FB3EF49095D7
S1130E808095709561957F4F8F4F9F4F9923A9F05F
S1130E90F92F96E9BB279395F695879577956795EE
S1130EA0B795F111F8CFFAF4BB0F11F460FF1BC032
S1130EB06F5F7F4F8F4F9F4F16C0882311F096E9C5
S1130EC011C0772321F09EE8872F762F05C0662373
S1130ED071F096E8862F70E060E02AF09A95660F2C
S1130EE0771F881FDAF7880F9695879597F90895E5
S1130EF097F99F6780E870E060E008959FEF80ECC9
S1130F00089500240A94161617061806090608956B
S1130F1000240A9412161306140605060895092ED1
S1130F200394000C11F4882352F0BB0F40F4BF2B40
S1130F3011F460FF04C06F5F7F4F8F4F9F4F089580
S1130F4057FD9058440F551F59F05F3F71F0479576
S1130F50880F97FB991F61F09F3F79F0879508955B
S1130F60121613061406551FF2CF4695F1DF08C07A
S1130F70161617061806991FF1CF86957105610597
S1130F8008940895E894BB2766277727CB0197F93F
S1130F9008950E94DC070C948F070E94810738F0A3
S1130FA00E94880720F0952311F00C9478070C9484
S1130FB07E0711240C94C3070E94A00770F3959F29
S1130FC0C1F3950F50E0551F629FF001729FBB273C
S1130FD0F00DB11D639FAA27F00DB11DAA1F649FD8
S1130FE06627B00DA11D661F829F2227B00DA11D8B
S1130FF0621F739FB00DA11D621F839FA00D611D11
S1131000221F749F3327A00D611D231F849F600D31
S1131010211D822F762F6A2F11249F5750409AF05A
S1131020F1F088234AF0EE0FFF1FBB1F661F771FE6
S1131030881F91505040A9F79E3F510580F00C94B1
S113104078070C94C3075F3FE4F3983ED4F3869586
S113105077956795B795F795E7959F5FC1F7FE2B51
S1131060880F911D9695879597F908950E946A08AF
S113107030F09F3710F40C94C3070C9441080C947F
S11310805C08882371F4772321F09850872B762FFE
S113109007C0662311F499270DC09051862B70E088
S11310A060E02AF09A95660F771F881FDAF7880F99
S11310B09695879597F908959F3F31F0915020F4C4
S11310C0879577956795B795880F911D9695879520
S11310D097F908950E94A807A0F0BEE7B91788F40D
S11310E0BB279F3860F41616B11D672F782F882709
S11310F0985FF7CF869577956795B11D9395963947
S1131100C8F30895AA1BBB1B51E107C0AA1FBB1F4C
S1131110A617B70710F0A61BB70B881F991F5A957F
S1131120A9F780959095BC01CD010895A1E21A2EEE
S1131130AA1BBB1BFD010DC0AA1FBB1FEE1FFF1F77
S1131140A217B307E407F50720F0A21BB30BE40BC7
S1131150F50B661F771F881F991F1A9469F760950E
S11311607095809590959B01AC01BD01CF010895C8
S1131170689401C0E8948F929F92CF93DF930E946A
S1131180C608DF91CF919F908F9008958824992469
S1131190F401E401B0E49F93AA279A158B049C04FC
S11311A0ED05FE05CF05D007A10798F4AD2FDC2F80
S11311B0CF2FFE2FE92D982C892E982F872F762F4D
S11311C0652F542F432F322F2227B85031F7BF9168
S11311D027C01B2EBF91BB27220F331F441F551F4F
S11311E0661F771F881F991F881C991CEE1FFF1FFD
S11311F0CC1FDD1FAA1FBB1F8A149B04EC05FD0531
S1131200CE05DF05A007B10748F08A189B08EC0952
S1131210FD09CE09DF09A00BB10B21601A94E1F698
S11312202EF49401AF01BE01CD01000C08952A0DE6
S11312303B1D4C1D5D1D6E1D7F1D801F911F08955C
S11312400024A7FD00942A0F301D401D501D601D71
S1131250701D801D901D0895BB274A3031F49923D9
S113126022F4BDE2909581959F4F0C943809BB27D9
S1131270FB015527AA27880F991FAA1FA41710F04E
S1131280A41B83955051B9F7A05DAA3308F0A95D5A
S1131290A193009779F7B111B1931192CB010C94FA
S11312A05C0BAEE0B0E0E7E5F9E00C94100C0D89BE
S11312B01E8986E08C8309831A838FEF9FE78D83D1
S11312C09E83AE01475E5F4F6F89788DCE01019694
S11312D00E9474092F813885F801E20FF31F1082F0
S11312E02E96E4E00C94290CACE0B0E0EAE7F9E0D7
S11312F00C94020C7C016B018A01FC01168217829A
S1131300838181FFBDC1CE0101964C01F701938118
S1131310F60193FD859193FF81916F01882309F470
S1131320ABC1853239F493FD859193FF81916F01AF
S1131330853229F4B70190E00E946C0BE7CF512C61
S1131340312C20E02032A0F48B3269F030F480326A
S113135059F0833269F420612CC08D3239F0803326
S113136039F4216026C02260246023C0286021C093
S113137027FD27C030ED380F3A3078F426FF06C039
S1131380FAE05F9E300D1124532E13C08AE0389E7C
S1131390300D1124332E20620CC08E3221F426FD30
S11313A06BC1206406C08C3611F4206802C08836F4
S11313B041F4F60193FD859193FF81916F018111B1
S11313C0C1CF982F9F7D9554933028F40C5F1F4F05
S11313D0FFE3F9830DC0833631F0833771F0833531
S11313E009F05BC022C0F801808189830E5F1F4F22
S11313F044244394512C540115C03801F2E06F0E7B
S1131400711CF801A080B18026FF03C0652D70E037
S113141002C06FEF7FEFC5012C870E94510B2C0196
S113142083012C852F77222E17C03801F2E06F0E2E
S1131430711CF801A080B18026FF03C0652D70E007
S113144002C06FEF7FEFC5012C870E94460B2C0171
S11314502C852068222E830123FC1BC0832D90E061
S113146048165906B0F4B70180E290E00E946C0B74
S11314703A94F4CFF50127FC859127FE81915F0111
S1131480B70190E00E946C0B31103A94F1E04F1ACE
S113149051084114510471F7E5C0843611F08936BE
S11314A039F5F80127FF07C060817181828193813A
S11314B00C5F1F4F08C060817181072E000C880BE0
S11314C0990B0E5F1F4F2F76722E97FF09C09095D0
S11314D08095709561957F4F8F4F9F4F2068722E36
S11314E02AE030E0A4010E94A40BA82EA81844C04E
S11314F0853729F42F7EB22E2AE030E025C0F22F62
S1131500F97FBF2E8F36C1F018F4883579F0B4C056
S1131510803719F0883721F0AFC02F2F2061B22E09
S1131520B4FE0DC08B2D8460B82E09C024FF0AC000
S11315309F2F9660B92E06C028E030E005C020E158
S113154030E002C020E132E0F801B7FE07C060815C
S11315507181828193810C5F1F4F06C0608171810C
S113156080E090E00E5F1F4FA4010E94A40BA82E00
S1131570A818FB2DFF777F2E76FE0BC0372D3E7FFC
S1131580A51450F474FE0AC072FC08C0372D3E7EC8
S113159005C0BA2C372D03C0BA2C01C0B52C34FFBA
S11315A00DC0FE01EA0DF11D8081803311F4397EF6
S11315B009C032FF06C0B394B39404C0832F867865
S11315C009F0B39433FD13C030FF06C05A2CB31492
S11315D018F4530C5B18B32CB31468F4B70180E20D
S11315E090E03C870E946C0BB3943C85F5CFB31418
S11315F010F43B1801C0312C34FF12C0B70180E352
S113160090E03C870E946C0B3C8532FF17C031FD93
S113161003C088E790E002C088E590E0B7010CC001
S1131620832F867859F031FF02C08BE201C080E23B
S113163037FD8DE2B70190E00E946C0BA51438F4DD
S1131640B70180E390E00E946C0B5A94F7CFAA9400
S1131650F401EA0DF11D8081B70190E00E946C0B4A
S1131660A110F5CF332009F451CEB70180E290E008
S11316700E946C0B3A94F6CFF7018681978102C0E1
S11316808FEF9FEF2C96E2E10C941B0CFC0105906C
S1131690615070400110D8F7809590958E0F9F1F70
S11316A00895FC016150704001900110D8F78095B5
S11316B090958E0F9F1F0895DC01FC01672F719197
S11316C07723E1F7329704C07C916D937083629124
S11316D0AE17BF07C8F308950F931F93CF93DF93FB
S11316E0FB01238121FD03C08FEF9FEF28C022FF60
S11316F016C046815781248135814217530744F42B
S1131700A081B1819D012F5F3F4F208331838C9352
S1131710268137812F5F3F4F2683378310C0EB012B
S1131720092F182F0084F185E02D0995892BE1F606
S11317308E819F8101968E839F83812F902FDF91CD
S1131740CF911F910F910895FA01AA27283051F1E2
S1131750203181F1E8946F936E7F6E5F7F4F8F4FDE
S11317609F4FAF4FB1E03ED0B4E03CD0670F781F3D
S1131770891F9A1FA11D680F791F8A1F911DA11D22
S11317806A0F711D811D911DA11D20D009F468945B
S11317903F912AE0269F11243019305D3193DEF603
S11317A0CF010895462F4770405D4193B3E00FD0B9
S11317B0C9F7F6CF462F4F70405D4A3318F0495DA4
S11317C031FD4052419302D0A9F7EACFB4E0A69587
S11317D09795879577956795BA95C9F700976105A9
S11317E0710508959B01AC010A2E069457954795FF
S11317F037952795BA95C9F7620F731F841F951FF4
S1131800A01D08952F923F924F925F926F927F9204
S11318108F929F92AF92BF92CF92DF92EF92FF92FC
S11318200F931F93CF93DF93CDB7DEB7CA1BDB0BA8
S1131830CDBFDEBF09942A88398848885F846E84C6
S11318407D848C849B84AA84B984C884DF80EE80E0
S1131850FD800C811B81AA81B981CE0FD11DCDBF22
S10D1860DEBFED010895F894FFCFF8
S113186A01DC05235B494E495420524F53532050FF
S113187A44425D0A0D00234669726D7761726520E0
S113188A76657273696F6E20002E32000A0D234D3D
S113189A736720666F726D61743A20456C65637470
S11318AA726F6E696373204261747420566F6C742C
S11318BA207C2052656172204261747420566F6CD8
S11318CA74207C2045626F782054656D706572615E
S11318DA74757265207C2035765F5359532043759D
S11318EA7272207C2035765F436F6D702043757267
S11318FA72207C205854656E642052535349207CCC
S113190A202252656D6F746520496E7075742220A9
S111191A0A0D007C0025642E25303464000084
S9030000FC
