S0190000506F776572446973747269627574696F6E2E73726563FE
S11300000C9456000C9473000C9473000C947300BD
S11300100C9473000C9473000C9473000C94730090
S11300200C9473000C9473000C9473000C94730080
S11300300C9473000C9473000C9473000C94730070
S11300400C9473000C9473000C9473000C94730060
S11300500C9473000C9473000C9473000C94730050
S11300600C9473000C9473000C9473000C94730040
S11300700C9473000C9473000C9473000C94730030
S11300800C9473000C9473000C9473000C94730020
S11300900C9473000C9473000C9473000C94730010
S11300A00C9473000C9473000C94730011241FBE01
S11300B0CFEFCDBFDFE2DEBF10E2A0E0B0E2E8ECBC
S11300C0F1E002C005900D92A031B107D9F720E20A
S11300D0A0E1B0E201C01D92A031B207E1F70E9495
S11300E0B8000C94E2000C940000E0E4F6E092E026
S11300F0918321E0218380E2818326839683868312
S11301000895E0E5F0E0808182608083E1E5F0E03D
S1130110808181FFFDCF88ED84BF81E08093400022
S11301200895E0E4F6E080E8818380E482838685B4
S113013080618687E0ECF8E083E0848382E2868352
S11301401782838180618383838188608383089598
S1130150FC012081222359F0DC011196E0ECF8E047
S1130160918195FFFDCF20832D912111F9CF089521
S11301700E9475000E9481000E949100C0E4D6E0B4
S113018001E0F02E12E02FEF83ED90E32150804048
S11301909040E1F700C00000FE821D8380E090E201
S11301A00E94A8002FEF83ED90E3215080409040FF
S11301B0E1F700C000000D831E8387E090E20E94F7
S10B01C0A800E1CFF894FFCF81
S11301C85265642E0A0D00477265656E2E0A0D008D
S9030000FC
