:100000000C9456000C9473000C9473000C947300C1
:100010000C9473000C9473000C9473000C94B40152
:100020000C94BE010C9473000C9473000C94730038
:100030000C9443010C9473000C9473000C947300A3
:100040000C9473000C9473000C9473000C94730064
:100050000C9473000C9473000C9473000C94730054
:100060000C9473000C9473000C9473000C94730044
:100070000C9473000C9473000C9419010C9473008D
:100080000C9473000C9473000C9473000C94730024
:100090000C9473000C9473000C9473000C94730014
:1000A0000C9473000C9473000C94730011241FBE05
:1000B000CFEFCDBFDFE2DEBF10E2A0E0B0E2E0E9CB
:1000C000FCE002C005900D92A63AB107D9F720E2F4
:1000D000A6EAB0E201C01D92A53BB207E1F70E947B
:1000E000DF020C9446060C940000CF93DF93A0E04F
:1000F000B2E082E111968C93119780E212968C9374
:10010000129713961C92139787E014968C9314976A
:10011000CAECD1E082E08883E0E2F0E0E49118826A
:100120001C96EC931C978883E1E2F0E0E49118823E
:100130001D96EC931D97EFE7FCE03197F1F700C0B7
:10014000000090968C93909781E491968C93919770
:1001500092961C92929781E08C93DF91CF910895B3
:10016000E0E5F0E08BE48283808188608083818198
:1001700083FD09C0A0E4B6E092E015969C93159724
:10018000818183FFFACF82E08093460688ED84BFA9
:10019000E0E5F0E088EC8583808180618083818167
:1001A00084FD09C0A0E4B6E092E015969C931597F3
:1001B000818184FFFACF82E08093460688ED84BF78
:1001C000E0E4F0E0108284BF84E080830895CF9360
:1001D000DF93E0E4F6E082E0818391E0918330E216
:1001E000318324E0228348E0428348E1428B438B01
:1001F000A0E0B6E012969C93129712968C931297F9
:10020000C0E6D6E09A838A832A8312962C931297AB
:1002100019968C9319971A962C931A9752962C919B
:10022000529752962C93968386833683DF91CF9193
:1002300008951F920F920FB60F9211248F9382E0B0
:100240008093450684E080930C068091A72081303E
:1002500031F48091080605C08091080602C0882309
:10026000D9F38F910F900FBE0F901F901895E0E07B
:10027000F8E087E0808389E09DE386A397A311825D
:1002800081E0868308951F920F920FB60F9211247A
:100290002F933F934F935F936F937F938F939F938E
:1002A000AF93EF93FF932091AB203091AC2040911E
:1002B000AD205091AE206091AF207091B020809120
:1002C000B1209091B220A1E00E9405062093AB20BE
:1002D0003093AC204093AD205093AE206093AF207C
:1002E0007093B0208093B1209093B220E0E0F8E0CA
:1002F00084858160848781E08093AA20FF91EF91BB
:10030000AF919F918F917F916F915F914F913F91AD
:100310002F910F900FBE0F901F901895E0E0F4E022
:1003200089E0808385E08283A0E5B0E08C918460E1
:100330008C938FE79CE00197F1F700C00000A0E4E8
:10034000B0E08CE013968C93139713968C911397CF
:10035000816013968C9380E090E48487958780E099
:100360009FEF8287938708951F920F920FB60F9287
:1003700011240F900FBE0F901F9018951F920F928F
:100380000FB60F9211248F939F93EF93FF93809159
:10039000B3209091B420892B41F081E080934606F0
:1003A0001092B3201092B42009C081E080934506DA
:1003B00081E090E08093B3209093B420E0E0F4E0FB
:1003C0001086118682E08383FF91EF919F918F9138
:1003D0000F900FBE0F901F901895E0E0F2E081E4BF
:1003E00081A380A1806880A38FE79CE00197F1F74B
:1003F00000C00000868180FFFDCFE0E0F2E081E0F8
:10040000868384A195A10895E0E0F2E089E481A3C8
:1004100080A1806880A3868180FFFDCFE0E0F2E0CC
:1004200081E0868384A195A108952F923F924F92F7
:100430005F926F927F928F929F92AF92BF92CF9274
:10044000DF92EF92FF920F931F93CF93DF930F2EC4
:10045000F4E66F2E712CF02D412C512C812C912C17
:10046000D0E0C0E0212C312C0E94ED01B92EA82E45
:10047000192F110F110B242D352D482D592D6D2FAE
:100480007C2F822D932DC12ED12EE12EF12E012F06
:100490000E94FC05422E532E842E952ED62FC72F58
:1004A000282E392E81E0681A7108F1F60F2EF4E635
:1004B000AF2EF02DB12CC12CD12CE12CF12C00E071
:1004C00010E0242D352D482D592D6D2F7C2F822D98
:1004D000932D0E949F05622F732F80E090E00E9471
:1004E000800429E83DE04DE95AE30E940E0524E628
:1004F00037E649E15BE30E94A20320E030E048ECEC
:1005000052E40E940E0520E030E048E452E40E94EC
:10051000A103DF91CF911F910F91FF90EF90DF909A
:10052000CF90BF90AF909F908F907F906F905F9093
:100530004F903F902F900895CF92DF92EF92FF92CD
:10054000CF93DF93C2E3D0E0C12CD12C76010E947F
:100550000402092E000CAA0BBB0BC80ED91EEA1E02
:10056000FB1E2197A1F7C701B60122E330E040E06E
:1005700050E00E947B05B90180E090E00E94800479
:1005800029E83DE04DE95AE30E940E0524E637E6EE
:1005900049E15BE30E94A20329E23CE54FE05FE30F
:1005A0000E940E0423E333E34FE151E40E94A203CF
:1005B000DF91CF91FF90EF90DF90CF9008950E9450
:1005C000E7000E94B0000E948A030E9437010E9447
:1005D00075000E948E01E0EAF0E0828181608283F2
:1005E0008281826082837894E6EAF0E281E081830E
:1005F0001282138280E090E20E94630383E190E222
:100600000E94630386E290E20E94630389E290E223
:100610000E94630382E080934606C0ECD8E00F2E70
:10062000F0E48F2EF6E09F2EF02D6894772475F875
:1006300000E018E0E12C6894FF24F2F80F2EF9E0B6
:10064000AF2EFDE3BF2EF02D0F2EF5E3CF2EFCE0F5
:10065000DF2EF02D8FE39FE10197F1F700C000003E
:100660008981882354F48881893719F4F4017582CB
:1006700004C08E3611F4F40176828091AA2088237A
:1006800049F31092AA20F80110A211A20E941502AB
:100690000E949C0282E990E20E946303F701808538
:1006A00091850E9473038FE890E20E946303F40136
:1006B000808583FD04C0F801C6A2D7A2CBCFF80184
:1006C000A6A2B7A2C7CFFC012081222359F0DC01EA
:1006D0001196E0ECF8E0918195FFFDCF20832D91FC
:1006E0002111F9CF0895CF93DF93CDB7DEB764978B
:1006F000CDBFDEBF4AE0BE016F5F7F4F0E94110693
:10070000CE0101960E9463036496CDBFDEBFDF91E8
:10071000CF910895E0E4F6E080E8818380E482836D
:10072000868580618687E0ECF8E083E0848382E25E
:10073000868317828381806183838381886083833A
:1007400008955058BB27AA270E94B9030C94D404DB
:100750000E94C60438F00E94CD0420F039F49F3F77
:1007600019F426F40C94C3040EF4E095E7FB0C9402
:10077000BD04E92F0E94E50458F3BA176207730716
:100780008407950720F079F4A6F50C9407050EF47C
:10079000E0950B2EBA2FA02D0B01B90190010C0191
:1007A000CA01A0011124FF27591B99F0593F50F4A9
:1007B000503E68F11A16F040A22F232F342F442701
:1007C000585FF3CF469537952795A795F0405395F9
:1007D000C9F77EF41F16BA0B620B730B840BBAF0C9
:1007E0009150A1F0FF0FBB1F661F771F881FC2F734
:1007F0000EC0BA0F621F731F841F48F48795779548
:100800006795B795F7959E3F08F0B0CF9395880F01
:1008100008F09927EE0F9795879508950E94220476
:100820000C94D4040E94CD0458F00E94C60440F0F9
:1008300029F45F3F29F00C94BD0451110C94080574
:100840000C94C3040E94E50468F39923B1F3552383
:1008500091F3951B550BBB27AA27621773078407D3
:1008600038F09F5F5F4F220F331F441FAA1FA9F369
:1008700035D00E2E3AF0E0E832D091505040E69557
:10088000001CCAF72BD0FE2F29D0660F771F881FB8
:10089000BB1F261737074807AB07B0E809F0BB0BAB
:1008A000802DBF01FF2793585F4F3AF09E3F5105BF
:1008B00078F00C94BD040C9408055F3FE4F3983E77
:1008C000D4F3869577956795B795F7959F5FC9F7A8
:1008D000880F911D9695879597F90895E1E0660F29
:1008E000771F881FBB1F621773078407BA0720F0A2
:1008F000621B730B840BBA0BEE1F88F7E09508950B
:10090000E89409C097FB3EF49095809570956195A9
:100910007F4F8F4F9F4F9923A9F0F92F96E9BB275F
:100920009395F695879577956795B795F111F8CFDB
:10093000FAF4BB0F11F460FF1BC06F5F7F4F8F4F46
:100940009F4F16C0882311F096E911C0772321F03C
:100950009EE8872F762F05C0662371F096E8862FD4
:1009600070E060E02AF09A95660F771F881FDAF72B
:10097000880F9695879597F9089597F99F6780E86E
:1009800070E060E008959FEF80EC089500240A94E1
:100990001616170618060906089500240A9412165A
:1009A0001306140605060895092E0394000C11F48D
:1009B000882352F0BB0F40F4BF2B11F460FF04C03A
:1009C0006F5F7F4F8F4F9F4F089557FD9058440F93
:1009D000551F59F05F3F71F04795880F97FB991F9E
:1009E00061F09F3F79F0879508951216130614065B
:1009F000551FF2CF4695F1DF08C0161617061806E8
:100A0000991FF1CF86957105610508940895E894C2
:100A1000BB2766277727CB0197F908950E94210508
:100A20000C94D4040E94C60438F00E94CD0420F037
:100A3000952311F00C94BD040C94C30411240C9460
:100A400008050E94E50470F3959FC1F3950F50E0EF
:100A5000551F629FF001729FBB27F00DB11D639F70
:100A6000AA27F00DB11DAA1F649F6627B00DA11D16
:100A7000661F829F2227B00DA11D621F739FB00DBC
:100A8000A11D621F839FA00D611D221F749F33272C
:100A9000A00D611D231F849F600D211D822F762FC5
:100AA0006A2F11249F5750409AF0F1F088234AF0A2
:100AB000EE0FFF1FBB1F661F771F881F915050400E
:100AC000A9F79E3F510580F00C94BD040C940805D5
:100AD0005F3FE4F3983ED4F3869577956795B79595
:100AE000F795E7959F5FC1F7FE2B880F911D9695AF
:100AF000879597F90895A1E21A2EAA1BBB1BFD0149
:100B00000DC0AA1FBB1FEE1FFF1FA217B307E407EC
:100B1000F50720F0A21BB30BE40BF50B661F771F44
:100B2000881F991F1A9469F7609570958095909524
:100B30009B01AC01BD01CF010895689401C0E89408
:100B40008F929F92CF93DF930E94AB05DF91CF915D
:100B50009F908F90089588249924F401E401B0E4D3
:100B60009F93AA279A158B049C04ED05FE05CF05DB
:100B7000D007A10798F4AD2FDC2FCF2FFE2FE92D42
:100B8000982C892E982F872F762F652F542F432F3F
:100B9000322F2227B85031F7BF9127C01B2EBF91AB
:100BA000BB27220F331F441F551F661F771F881F47
:100BB000991F881C991CEE1FFF1FCC1FDD1FAA1F49
:100BC000BB1F8A149B04EC05FD05CE05DF05A007BD
:100BD000B10748F08A189B08EC09FD09CE09DF0926
:100BE000A00BB10B21601A94E1F62EF49401AF0131
:100BF000BE01CD01000C08952A0D3B1D4C1D5D1D4D
:100C00006E1D7F1D801F911F08950024A7FD009475
:100C10002A0F301D401D501D601D701D801D901D30
:100C20000895BB274A3031F4992322F4BDE2909510
:100C300081959F4F0C941D06BB27FB015527AA27C2
:100C4000880F991FAA1FA41710F0A41B8395505159
:100C5000B9F7A05DAA3308F0A95DA193009779F7D1
:100C6000B111B1931192CB010C943606DC01FC0159
:100C7000672F71917723E1F7329704C07C916D93D0
:100C800070836291AE17BF07C8F30895F894FFCF41
:100C9000235B494E495420524F5353205044425DE8
:100CA0000A0D00234669726D776172652076657260
:100CB00073696F6E20002E31000A0D234D7367207B
:100CC000666F726D61743A20456C656374726F6E05
:100CD000696373204261747420566F6C74207C20A9
:100CE00052656172204261747420566F6C74207C6E
:100CF0002045626F782054656D70657261747572FD
:100D000065207C2035765F535953204375727220DD
:100D10007C2035765F436F6D702043757272200AB8
:100D20000D0052544320436F756E746572205661F6
:060D30006C75653A20001D
:00000001FF
