S0190000506F776572446973747269627574696F6E2E73726563FE
S11300000C9456000C9473000C9473000C947300BD
S11300100C9473000C9473000C9473000C943E02C3
S11300200C9448020C9473000C9473000C947300A9
S11300300C94CD010C9473000C9473000C94730015
S11300400C9473000C9473000C9482010C94730050
S11300500C9473000C9473000C9473000C94730050
S11300600C9473000C9473000C9473000C94730040
S11300700C9473000C9473000C941A010C94730088
S11300800C9473000C9473000C9473000C94E600AD
S11300900C94B3010C9473000C94A4010C9473009D
S11300A00C9473000C9473000C94730011241FBE01
S11300B0CFEFCDBFDFE2DEBF10E2A0E0B0E2E4E6C6
S11300C0FBE102C005900D92A63FB107D9F721E2EA
S11300D0A6EFB0E201C01D92AD32B207E1F70E9473
S11300E0BC040C94B00D0C940000E0E5F0E08BE44B
S11300F08283808188608083818183FD09C0A0E43C
S1130100B6E092E015969C931597818183FFFACF10
S113011082E08093460688ED84BFE0E5F0E088EC59
S11301208583808180618083818184FD09C0A0E40E
S1130130B6E092E015969C931597818184FFFACFDF
S113014082E08093460688ED84BFE0E4F0E010820C
S113015084BF84E080830895CF93DF93E0E4F6E0E6
S113016082E0818391E0918320E2218344E0428311
S113017038E0328338E1328B338BC0E0D6E09A83A7
S11301808A83A0E6B6E012969C93129712968C93FB
S1130190129712964C93129730E132834A83129647
S11301A03C93129711962C93119719968C93199747
S11301B01A963C931A9754969C93549796838683E5
S11301C0268316962C93DF91CF9108951F920F9258
S11301D00FB60F9211248F939F9380E180936C0646
S11301E080910020813081F410926008109261089F
S11301F01092002087EC90E00197F1F700C0000016
S113020082E0809374060FC0809160089091610829
S1130210880F991F809313219093142181E0809378
S11302200020809374069F918F910F900FBE0F90C2
S11302301F9018951F920F920FB60F9211248F934F
S11302409F93EF93FF93F89484E080930C0680913E
S11302502421813061F48091080682FD0BC01FC007
S11302608091080682FF0DC01AC078941CC08823B0
S1130270B9F315C0109208041092090410922421B5
S1130280F4CF8091080490910904E3E2F1E28483BD
S1130290958386819781019686839783E6CF82E052
S11302A080934506E2CFFF91EF919F918F910F903C
S11302B00FBE0F901F901895E0E0F8E087E0808370
S11302C089E09DE386A397A3118281E08683E0E41D
S11302D0F8E085E08083118220EE3EE226A337A376
S11302E092E09683E0E4F9E08083118280E197E272
S11302F086A397A383E08683878386EB93E080A716
S113030091A708951F920F920FB60F9211248F9305
S11303109F93EF93FF93E0E4F8E084858160848702
S113032081E080930020809374068CED95E08093A7
S1130330132190931421FF91EF919F918F910F902E
S11303400FBE0F901F9018951F920F920FB60F9229
S113035011248F9380E2809366068F910F900FBED5
S11303600F901F9018951F920F920FB60F921124A1
S11303708F93EF93FF9380E280936506E0E4F9E0C6
S113038084858160848710A211A2FF91EF918F91DF
S11303900F900FBE0F901F9018951F920F920FB6DB
S11303A00F9211242F933F934F935F936F937F93F7
S11303B08F939F93AF93EF93FF93209115213091E7
S11303C016214091172150911821609119217091A3
S11303D01A2180911B2190911C21A1E00E949D0A69
S11303E020931521309316214093172150931821FF
S11303F06093192170931A2180931B2190931C21DF
S1130400E0E0F8E084858160848781E080931D21A9
S1130410FF91EF91AF919F918F917F916F915F9138
S11304204F913F912F910F900FBE0F901F901895F1
S1130430E0E0F4E089E0808385E08283A0E5B0E039
S11304408C9184608C938FE79CE00197F1F700C056
S11304500000A0E4B0E08CE013968C9313971396FD
S11304608C911397816013968C9380E090E4848739
S1130470958780E09FEF8287938708951F920F925C
S11304800FB60F9211240F900FBE0F901F90189566
S11304901F920F920FB60F9211248F93EF93FF9335
S11304A0E0E0F4E01086118682E083831092272135
S11304B010922821FF91EF918F910F900FBE0F9012
S11304C01F9018950895AAECB1E092E09C93E82F50
S11304D0F0E084911C920895CF93DF93C0E0D2E0C2
S11304E082E1898380E28A831B8287E08C8380E2B5
S11304F00E9463028C8781E20E9463028D878FE7EA
S11305009CE00197F1F700C0000082E088A381E439
S113051089A31AA281E08883DF91CF910895AAEC80
S1130520B1E022E02C93FC0184911C9208952F9257
S11305303F924F925F926F927F928F929F92AF926F
S1130540BF92CF92DF92EF92FF920F931F93CF93BC
S1130550DF9388E090E00E948F02C8E0D1E28883B4
S113056089E090E00E948F0289838AE090E00E94F3
S11305708F028A838BE090E00E948F028B838CE051
S113058090E00E948F028C838DE090E00E948F02A5
S11305908D8380E190E00E948F028E8382E190E05F
S11305A00E948F028F8383E190E00E948F028887EC
S11305B084E190E00E948F02898785E190E00E94A7
S11305C08F028A872880312C412C512C612C712C6C
S11305D04301A9E0B1E2E4E6F0E08D918E9FE001F1
S11305E08F9FD00D11241D2F110F110B222D332D90
S11305F0442D552D662D772D882D992DAC2EBD2E8D
S1130600C12ED12EE12EF12E012F0E94940A222E0A
S1130610332E442E552E662E772E882E992EEC5985
S1130620FF4FE83582E0F807C1F6209200213092AE
S11306300121409202215092032160920421709280
S113064005218092062190920721E8E0F1E22681BB
S1130650A781C4E6AC9FD00111241B2F110F110BED
S113066030E040E050E060E070E080E090E0AA2EEE
S1130670BB2EC12ED12EE12EF12E012F0E94940A01
S1130680A085C8ECAC9FD00111241B2F110F110BB6
S1130690AA2EBB2EC12ED12EE12EF12E012F0E94A7
S11306A0940AC185ACE2B1E0CA9FF001CB9FF00D82
S11306B011241F2F110F110BAE2EBF2EC12ED12EC0
S11306C0E12EF12E012F0E94940A2093F8203093FA
S11306D0F9204093FA205093FB206093FC20709300
S11306E0FD208093FE209093FF208FEF9FEF809357
S11306F0F6209093F720222D332D442D552D662D71
S1130700772D882D992D21393E43414051056105AE
S1130710710581059105F9F42091F8203091F920B3
S11307204091FA205091FB206091FC207091FD20B3
S11307308091FE209091FF202331394341055105DA
S1130740610571058105910531F481E090E08093A4
S1130750F6209093F720DF91CF911F910F91FF9096
S1130760EF90DF90CF90BF90AF909F908F907F904D
S11307706F905F904F903F902F9008952091F620B6
S11307803091F7202130310591F4BC0180E090E0F4
S11307900E94B80829E83DE04DE95AE30E94460961
S11307A024E637E649E15BE30E94A407089560E08C
S11307B070E080E89FE30895E0E0F2E081E481A343
S11307C080A1806880A38FE79CE00197F1F700C0C7
S11307D00000868180FFFDCFE0E0F2E081E08683C7
S11307E084A195A10895E0E0F2E089E481A380A1C9
S11307F0806880A3868180FFFDCFE0E0F2E081E0A5
S1130800868384A195A108952F923F924F925F927F
S11308106F927F928F929F92AF92BF92CF92DF920C
S1130820EF92FF920F931F93CF93DF930F2EF4E673
S11308306F2E712CF02D412C512C812C912CD0E059
S1130840C0E0212C312C0E94DC03B92EA82E192FD4
S1130850110F110B242D352D482D592D6D2F7C2F63
S1130860822D932DC12ED12EE12EF12E012F0E9427
S1130870940A422E532E842E952ED62FC72F282E1F
S1130880392E81E0681A7108F1F60F2EF4E6AF2EC6
S1130890F02DB12CC12CD12CE12CF12C00E010E076
S11308A0242D352D482D592D6D2F7C2F822D932DE0
S11308B00E94370A822F932F0E94BE0320E030E06B
S11308C048E452E40E944609DF91CF911F910F91B1
S11308D0FF90EF90DF90CF90BF90AF909F908F905C
S11308E07F906F905F904F903F902F900895CF929C
S11308F0DF92EF92FF92CF93DF93C4E6D0E0C12C56
S1130900D12C76010E94F303092E000CAA0BBB0B19
S1130910C80ED91EEA1EFB1E2197A1F7C701B60116
S113092024E630E040E050E00E94130AC9010E942E
S1130930BE036B017C0183E090E20E94CE06C701F6
S1130940B6010E94200782E190E20E94CE0629E2CD
S11309503CE54FE05FE3C701B6010E94100823E3C2
S113096033E34FE151E40E94A407DF91CF91FF905C
S1130970EF90DF90CF900895CF93DF9300D000D015
S1130980CDB7DEB70E94AC000E9475000E947A07C2
S11309900E945C010E946C020E9418020E94620282
S11309A00E949702E0EAF0E0828181608283828182
S11309B0826082838281846082837894E3E2F1E2BC
S11309C081E08183128213821682178285E190E28C
S11309D00E94DE068AE290E20E94DE068DE390E247
S11309E00E94DE0680E490E20E94DE068091F620FA
S11309F09091F7208F3F2FEF920729F483E590E23F
S1130A000E94DE0602C00E9409078BE590E20E9464
S1130A10CE0600EC18E00F2EF0E42F2EF6E03F2E69
S1130A20F02D812C6894992493F80F2EFAE04F2E20
S1130A30512CF02DCC24C3940F2EF2E3BF2EF02DB5
S1130A406894772475F86894662461F80F2EF5E0AD
S1130A50AF2EF02D0F2EF0E4EF2EF9E0FF2EF02D47
S1130A608FE39FE10197F1F700C00000F801818155
S1130A7088230CF06DC0D08082EE8D0D843218F482
S1130A808D2D0E94EE06F9E7DF1203C0F101758295
S1130A9010C0FEE6DF1203C0F10176820AC0F6E45C
S1130AA0DF1207C01092202110921E2110921F21E4
S1130AB04FC089EB8D0D813108F04AC0C0922021CE
S1130AC0BD9CC001112482599940809301209093C8
S1130AD00220F101808582FD1FC0F40186A197A147
S1130AE085339C4039F482E390E080931E219093F7
S1130AF01F212EC0F40186A197A189309D4329F4BA
S1130B0040921E2150921F2123C082E390E08093E3
S1130B101E2190931F211CC0F40186A197A1853347
S1130B209C4029F440921E2150921F2111C0F401CF
S1130B3086A197A189309D4339F482E090E08093A7
S1130B401E2190931F2104C040921E2150921F2108
S1130B508091C109882384F4E0ECF9E080818A3033
S1130B6029F4C0922221A092212106C0843121F4CB
S1130B7060922221A0922121809120218823A1F03A
S1130B80609101207091022080E090E00E94B808FA
S1130B9020E030E040E05FE30E9446090E948908BB
S1130BA0F70160A771A713C06091132170911421FC
S1130BB080E090E00E94B80820E030E040E05FE38D
S1130BC00E9446090E948908F70160A771A78091D5
S1130BD01D21882309F444CF10921D21F40110A291
S1130BE011A20E94040469837A838B839C830E94EC
S1130BF077046B017C01109208041092090410928E
S1130C002421E0E0F4E0A0E0B6E08FE891E0019771
S1130C10F1F700C00000808591858231914028F46D
S1130C2018968C91189782FDF0CFE0E0F4E0A0E0F4
S1130C30B6E08FE891E00197F1F700C000008085ED
S1130C4091858231914028F418968C91189782FFEF
S1130C50F0CF1092080410920904E0E0F4E0A0E060
S1130C60B6E08FE891E00197F1F700C000008085BD
S1130C7091858231914028F418968C91189782FDC1
S1130C80F0CF80910804909109040F2EF3E2AF2E67
S1130C90F1E2BF2EF02DF501848395832481358103
S1130CA044E6429FC001439F900D112461E171E02D
S1130CB00E94FF09608386819781019686839783CA
S1130CC084819581C701B6010E94200782EE90E2DB
S1130CD00E94CE0660E070E0CB010E94200782EE05
S1130CE090E20E94CE0669817A818B819C810E9468
S1130CF0200782EE90E20E94CE0660E070E0CB0115
S1130D000E94200782EE90E20E94CE0660E070E02E
S1130D10CB010E94200782EE90E20E94CE06F501EC
S1130D2080810E94F106F5018081811104C084EE66
S1130D3090E20E94DE0682EE90E20E94CE0680914E
S1130D4022210E94F1068FED90E20E94CE0680914E
S1130D502121815080932121811102C010922221EE
S1130D6080911E2190911F21009731F0019780936B
S1130D701E2190931F2102C010922021F101808531
S1130D8083FD06C085E39CE0F40186A397A352CEBD
S1130D9089E09DE3F40186A397A34CCEFC01208156
S1130DA0222359F0DC011196E0ECF8E0918195FFE3
S1130DB0FDCF20832D912111F9CF0895FC012081CD
S1130DC0222359F0DC011196E0ECF8E0918195FFC3
S1130DD0FDCF20832D912111F9CF08958093C0096F
S1130DE00895CF93DF93CDB7DEB72A97CDBFDEBF8B
S1130DF04AE0BE016F5F7F4F90E00E94A90ACE01D6
S1130E0001960E94CE062A96CDBFDEBFDF91CF9118
S1130E100895CF93DF93CDB7DEB76497CDBFDEBF20
S1130E204AE0BE016F5F7F4F0E94A90ACE0101967E
S1130E300E94CE066496CDBFDEBFDF91CF910895A8
S1130E408F929F92AF92BF92CF92DF92EF92FF92D6
S1130E500F931F93CF93DF93CDB7DEB7C456D10959
S1130E60CDBFDEBF4B015C010E9482086B017C0197
S1130E70072E000C880B990B0E94BA089B01AC0149
S1130E80C501B4010E94A30720E030E44CE156E41C
S1130E900E9446090E94B3090E9482089B0177239D
S1130EA024F422273327261B370B3F932F93DF92FB
S1130EB0CF928DEE90E29F938F938E010F5F1F4F21
S1130EC01F930F930E94CE0AC8010E94CE06CDBF85
S1130ED0DEBFCC59DF4FCDBFDEBFDF91CF911F9175
S1130EE00F91FF90EF90DF90CF90BF90AF909F90C5
S1130EF08F900895E0E4F6E040E8418330E43283E3
S1130F00868580618687E0ECF8E023E0248392E222
S1130F10968317828381806183838381886083833E
S1130F20E0E6F6E041833283868580618687E0ECE3
S1130F30F9E024839683178283818061838383818C
S1130F408860838308955058BB27AA270E94BB0753
S1130F500C940C090E94FE0838F00E94050920F048
S1130F6039F49F3F19F426F40C94FB080EF4E09531
S1130F70E7FB0C94F508E92F0E941D0958F3BA17F2
S1130F80620773078407950720F079F4A6F50C949B
S1130F903F090EF4E0950B2EBA2FA02D0B01B901D9
S1130FA090010C01CA01A0011124FF27591B99F0DB
S1130FB0593F50F4503E68F11A16F040A22F232FE7
S1130FC0342F4427585FF3CF469537952795A79537
S1130FD0F0405395C9F77EF41F16BA0B620B730BDE
S1130FE0840BBAF09150A1F0FF0FBB1F661F771F4F
S1130FF0881FC2F70EC0BA0F621F731F841F48F404
S1131000879577956795B795F7959E3F08F0B0CF8C
S11310109395880F08F09927EE0F97958795089573
S11310200E9424080C940C090E94050958F00E949F
S1131030FE0840F029F45F3F29F00C94F5085111A3
S11310400C9440090C94FB080E941D0968F3992331
S1131050B1F3552391F3951B550BBB27AA276217B0
S11310607307840738F09F5F5F4F220F331F441FBD
S1131070AA1FA9F335D00E2E3AF0E0E832D09150F1
S11310805040E695001CCAF72BD0FE2F29D0660FDE
S1131090771F881FBB1F261737074807AB07B0E821
S11310A009F0BB0B802DBF01FF2793585F4F3AF027
S11310B09E3F510578F00C94F5080C9440095F3F6D
S11310C0E4F3983ED4F3869577956795B795F795AD
S11310D09F5FC9F7880F911D9695879597F9089595
S11310E0E1E0660F771F881FBB1F62177307840731
S11310F0BA0720F0621B730B840BBA0BEE1F88F740
S1131100E09508950E9489086894B1110C944009EF
S113111008950E94250988F09F5798F0B92F9927C0
S1131120B751B0F0E1F0660F771F881F991F1AF0CE
S1131130BA95C9F714C0B13091F00E943F09B1E0EB
S113114008950C943F09672F782F8827B85F39F0EA
S1131150B93FCCF3869577956795B395D9F73EF467
S113116090958095709561957F4F8F4F9F4F08950F
S1131170E89409C097FB3EF490958095709561952D
S11311807F4F8F4F9F4F9923A9F0F92F96E9BB27E3
S11311909395F695879577956795B795F111F8CF5F
S11311A0FAF4BB0F11F460FF1BC06F5F7F4F8F4FCA
S11311B09F4F16C0882311F096E911C0772321F0C0
S11311C09EE8872F762F05C0662371F096E8862F58
S11311D070E060E02AF09A95660F771F881FDAF7AF
S11311E0880F9695879597F9089597F99F6780E8F2
S11311F070E060E008959FEF80EC089500240A9465
S11312001616170618060906089500240A941216DD
S11312101306140605060895092E0394000C11F410
S1131220882352F0BB0F40F4BF2B11F460FF04C0BD
S11312306F5F7F4F8F4F9F4F089557FD9058440F16
S1131240551F59F05F3F71F04795880F97FB991F21
S113125061F09F3F79F087950895121613061406DE
S1131260551FF2CF4695F1DF08C01616170618066B
S1131270991FF1CF86957105610508940895E89446
S1131280BB2766277727CB0197F908950E94590950
S11312900C940C090E94FE0838F00E94050920F005
S11312A0952311F00C94F5080C94FB0811240C946C
S11312B040090E941D0970F3959FC1F3950F50E0FA
S11312C0551F629FF001729FBB27F00DB11D639FF4
S11312D0AA27F00DB11DAA1F649F6627B00DA11D9A
S11312E0661F829F2227B00DA11D621F739FB00D40
S11312F0A11D621F839FA00D611D221F749F3327B0
S1131300A00D611D231F849F600D211D822F762F48
S11313106A2F11249F5750409AF0F1F088234AF025
S1131320EE0FFF1FBB1F661F771F881F9150504091
S1131330A9F79E3F510580F00C94F5080C944009E0
S11313405F3FE4F3983ED4F3869577956795B79518
S1131350F795E7959F5FC1F7FE2B880F911D969532
S1131360879597F908950E94E70930F09F3710F4A4
S11313700C9440090C94BE090C94D909882371F487
S1131380772321F09850872B762F07C0662311F41A
S113139099270DC09051862B70E060E02AF09A9551
S11313A0660F771F881FDAF7880F9695879597F948
S11313B008959F3F31F0915020F487957795679574
S11313C0B795880F911D9695879597F908950E9472
S11313D02509A0F0BEE7B91788F4BB279F3860F44D
S11313E01616B11D672F782F8827985FF7CF86953B
S11313F077956795B11D93959639C8F30895AA1BFF
S1131400BB1B51E107C0AA1FBB1FA617B70710F0EB
S1131410A61BB70B881F991F5A95A9F7809590951D
S1131420BC01CD010895A1E21A2EAA1BBB1BFD012C
S11314300DC0AA1FBB1FEE1FFF1FA217B307E407AF
S1131440F50720F0A21BB30BE40BF50B661F771F07
S1131450881F991F1A9469F76095709580959095E7
S11314609B01AC01BD01CF010895689401C0E894CB
S11314708F929F92CF93DF930E94430ADF91CF9183
S11314809F908F90089588249924F401E401B0E496
S11314909F93AA279A158B049C04ED05FE05CF059E
S11314A0D007A10798F4AD2FDC2FCF2FFE2FE92D05
S11314B0982C892E982F872F762F652F542F432F02
S11314C0322F2227B85031F7BF9127C01B2EBF916E
S11314D0BB27220F331F441F551F661F771F881F0A
S11314E0991F881C991CEE1FFF1FCC1FDD1FAA1F0C
S11314F0BB1F8A149B04EC05FD05CE05DF05A00780
S1131500B10748F08A189B08EC09FD09CE09DF09E8
S1131510A00BB10B21601A94E1F62EF49401AF01F3
S1131520BE01CD01000C08952A0D3B1D4C1D5D1D0F
S11315306E1D7F1D801F911F08950024A7FD009438
S11315402A0F301D401D501D601D701D801D901DF3
S11315500895BB274A3031F4992322F4BDE29095D3
S113156081959F4F0C94B50ABB27FB015527AA27E9
S1131570880F991FAA1FA41710F0A41B839550511C
S1131580B9F7A05DAA3308F0A95DA193009779F794
S1131590B111B1931192CB010C94D90CAEE0B0E02F
S11315A0E4EDFAE00C948D0D0D891E8986E08C83A0
S11315B009831A838FEF9FE78D839E83AE01475E75
S11315C05F4F6F89788DCE0101960E94F10A2F81B9
S11315D03885F801E20FF31F10822E96E4E00C9494
S11315E0A60DACE0B0E0E7EFFAE00C947F0D7C01CF
S11315F06B018A01FC0116821782838181FFBDC1C0
S1131600CE0101964C01F7019381F60193FD85917A
S113161093FF81916F01882309F4ABC1853239F4BA
S113162093FD859193FF81916F01853229F4B70170
S113163090E00E94E90CE7CF512C312C20E02032BD
S1131640A0F48B3269F030F4803259F0833269F4BB
S113165020612CC08D3239F0803339F4216026C0EA
S11316602260246023C0286021C027FD27C030EDFC
S1131670380F3A3078F426FF06C0FAE05F9E300D4A
S11316801124532E13C08AE0389E300D1124332EBA
S113169020620CC08E3221F426FD6BC1206406C08A
S11316A08C3611F4206802C0883641F4F60193FDAB
S11316B0859193FF81916F018111C1CF982F9F7DF7
S11316C09554933028F40C5F1F4FFFE3F9830DC04A
S11316D0833631F0833771F0833509F05BC022C063
S11316E0F801808189830E5F1F4F44244394512C59
S11316F0540115C03801F2E06F0E711CF801A0808E
S1131700B18026FF03C0652D70E002C06FEF7FEF4C
S1131710C5012C870E94CE0C2C0183012C852F77C8
S1131720222E17C03801F2E06F0E711CF801A08060
S1131730B18026FF03C0652D70E002C06FEF7FEF1C
S1131740C5012C870E94C30C2C012C852068222EF5
S1131750830123FC1BC0832D90E048165906B0F486
S1131760B70180E290E00E94E90C3A94F4CFF501CD
S113177027FC859127FE81915F01B70190E00E94CB
S1131780E90C31103A94F1E04F1A51084114510414
S113179071F7E5C0843611F0893639F5F80127FF71
S11317A007C060817181828193810C5F1F4F08C0E3
S11317B060817181072E000C880B990B0E5F1F4FFF
S11317C02F76722E97FF09C090958095709561953C
S11317D07F4F8F4F9F4F2068722E2AE030E0A40184
S11317E00E94210DA82EA81844C0853729F42F7E05
S11317F0B22E2AE030E025C0F22FF97FBF2E8F36BB
S1131800C1F018F4883579F0B4C0803719F08837FE
S113181021F0AFC02F2F2061B22EB4FE0DC08B2D4E
S11318208460B82E09C024FF0AC09F2F9660B92E89
S113183006C028E030E005C020E130E002C020E12D
S113184032E0F801B7FE07C0608171818281938123
S11318500C5F1F4F06C06081718180E090E00E5FD5
S11318601F4FA4010E94210DA82EA818FB2DFF775D
S11318707F2E76FE0BC0372D3E7FA51450F474FEE8
S11318800AC072FC08C0372D3E7E05C0BA2C372D25
S113189003C0BA2C01C0B52C34FF0DC0FE01EA0D03
S11318A0F11D8081803311F4397E09C032FF06C0F6
S11318B0B394B39404C0832F867809F0B39433FDB2
S11318C013C030FF06C05A2CB31418F4530C5B1821
S11318D0B32CB31468F4B70180E290E03C870E9413
S11318E0E90CB3943C85F5CFB31410F43B1801C054
S11318F0312C34FF12C0B70180E390E03C870E9492
S1131900E90C3C8532FF17C031FD03C088E790E045
S113191002C088E590E0B7010CC0832F867859F0A7
S113192031FF02C08BE201C080E237FD8DE2B701D6
S113193090E00E94E90CA51438F4B70180E390E02C
S11319400E94E90C5A94F7CFAA94F401EA0DF11D10
S11319508081B70190E00E94E90CA110F5CF3320FB
S113196009F451CEB70180E290E00E94E90C3A9468
S1131970F6CFF7018681978102C08FEF9FEF2C96F7
S1131980E2E10C94980DFC01059061507040011047
S1131990D8F7809590958E0F9F1F0895FC01615094
S11319A0704001900110D8F7809590958E0F9F1F7D
S11319B00895DC01FC01672F71917723E1F73297D9
S11319C004C07C916D9370836291AE17BF07C8F316
S11319D008950F931F93CF93DF93FB01238121FD80
S11319E003C08FEF9FEF28C022FF16C046815781A6
S11319F0248135814217530744F4A081B1819D01AC
S1131A002F5F3F4F208331838C93268137812F5F53
S1131A103F4F2683378310C0EB01092F182F008412
S1131A20F185E02D0995892BE1F68E819F81019640
S1131A308E839F83812F902FDF91CF911F910F91E0
S1131A400895FA01AA27283051F1203181F1E89450
S1131A506F936E7F6E5F7F4F8F4F9F4FAF4FB1E09D
S1131A603ED0B4E03CD0670F781F891F9A1FA11D98
S1131A70680F791F8A1F911DA11D6A0F711D811D99
S1131A80911DA11D20D009F468943F912AE0269F5E
S1131A9011243019305D3193DEF6CF010895462FBD
S1131AA04770405D4193B3E00FD0C9F7F6CF462F9E
S1131AB04F70405D4A3318F0495D31FD4052419307
S1131AC002D0A9F7EACFB4E0A695979587957795C4
S1131AD06795BA95C9F700976105710508959B014B
S1131AE0AC010A2E06945795479537952795BA95D4
S1131AF0C9F7620F731F841F951FA01D08952F92AD
S1131B003F924F925F926F927F928F929F92AF9289
S1131B10BF92CF92DF92EF92FF920F931F93CF93D6
S1131B20DF93CDB7DEB7CA1BDB0BCDBFDEBF099495
S1131B302A88398848885F846E847D848C849B8459
S1131B40AA84B984C884DF80EE80FD800C811B8167
S1131B50AA81B981CE0FD11DCDBFDEBFED0108959D
S1071B60F894FFCF23
S1131B6401DC055B52617720566F6C746167653ADA
S1131B7420005D20000A0D235B494E495420524F36
S1131B845353205044425D0A0D00234669726D7715
S1131B946172652076657273696F6E20002E32005F
S1131BA40A0D2353657269616C204E756D6265720A
S1131BB43A20004E4F5420534554000A0D234D73CC
S1131BC46720666F726D61743A20456C6563747244
S1131BD46F6E696373204261747420566F6C742051
S1131BE47C2052656172204261747420566F6C7457
S1131BF4207C2045626F782054656D706572617431
S1131C04757265207C2035765F5359532043757271
S1131C1472207C2035765F436F6D70204375727239
S1131C24207C205854656E642052535349207C20F0
S1131C342252656D6F746520496E70757422200A92
S1131C440D007C003000256C78256C780025642E0A
S1091C5425303464000099
S9030000FC
