:100000000C9456000C946B000C946B000C946B00D9
:100010000C946B000C946B000C946B000C946B00B4
:100020000C946B000C946B000C946B000C946B00A4
:100030000C946B000C946B000C946B000C946B0094
:100040000C946B000C946B000C946B000C946B0084
:100050000C946B000C946B000C946B000C946B0074
:100060000C946B000C946B000C946B000C946B0064
:100070000C946B000C946B000C946B000C946B0054
:100080000C946B000C946B000C946B000C946B0044
:100090000C946B000C946B000C946B000C946B0034
:1000A0000C946B000C946B000C946B0011241FBE1D
:1000B000CFEFCDBFDFE2DEBF10E2A0E0B0E2EAEBBF
:1000C000F3E002C005900D92A832B107D9F70E9463
:1000D00023010C94DB010C940000CF93DF93A0E08C
:1000E000B2E082E111968C93119780E212968C9384
:1000F000129713961C92139787E014968C9314977B
:10010000CAECD1E082E08883E0E2F0E0E49118827A
:100110001C96EC931C978883E1E2F0E0E49118824E
:100120001D96EC931D97EFE7FCE03197F1F700C0C7
:10013000000090968C93909781E491968C93919780
:1001400092961C92929781E08C93DF91CF910895C3
:10015000E0E5F0E08BE482838081886080838181A8
:1001600083FD09C0A0E4B6E092E015969C93159734
:10017000818183FFFACF82E08093460688ED84BFB9
:10018000E0E5F0E088EC8583808180618083818177
:1001900084FD09C0A0E4B6E092E015969C93159703
:1001A000818184FFFACF82E08093460688ED84BF88
:1001B000E0E4F0E0108284BF84E080830895E0E40E
:1001C000F6E092E0918381E0818320E2218334E0B4
:1001D000328338E0328338E1328B338BA0E0B6E0F3
:1001E00012968C93129712969C9380936206868344
:1001F000968326830895E0E0F2E081E481A380A164
:10020000806880A38FE79CE00197F1F700C00000B1
:10021000868180FFFDCFE0E0F2E081E0868384A16B
:1002200095A10895E0E0F2E089E481A380A18068CF
:1002300080A3868180FFFDCFE0E0F2E081E086834D
:1002400084A195A108950E94DF000E94A8000E9449
:100250008F010E946D0000E010E0C0E4D6E0EE24C3
:10026000E3946894FF24F1F82FEF83EC99E0215098
:1002700080409040E1F700C00000888582FD02C008
:10028000ED8201C0EE8205371E4010F0FD8201C0F4
:10029000FE828FEF97EA21E6815090402040E1F7FF
:1002A00000C0000080E090E20E9468010E94FB0014
:1002B0008C010E9478018FE090E20E9468010E9408
:1002C00012010E94780182E290E20E946801CCCF84
:1002D000FC012081222359F0DC011196E0ECF8E0CA
:1002E000918195FFFDCF20832D912111F9CF0895A4
:1002F000CF93DF93CDB7DEB76497CDBFDEBF4AE0C3
:10030000BE016F5F7F4F0E94A601CE0101960E9441
:1003100068016496CDBFDEBFDF91CF910895E0E420
:10032000F6E080E8818380E4828386858061868729
:10033000E0ECF8E083E0848382E2868317828381A5
:10034000806183838381886083830895BB274A30DB
:1003500031F4992322F4BDE2909581959F4F0C943E
:10036000B201BB27FB015527AA27880F991FAA1F97
:10037000A41710F0A41B83955051B9F7A05DAA33C0
:1003800008F0A95DA193009779F7B111B19311928B
:10039000CB010C94CB01DC01FC01672F7191772319
:1003A000E1F7329704C07C916D9370836291AE1730
:0A03B000BF07C8F30895F894FFCFCB
:1003BA0054656D70204144432056616C3A2000090F
:1003CA0042617474657279204144432056616C3AE3
:0803DA0020000A0D0A0D0000CD
:00000001FF
