S0190000506F776572446973747269627574696F6E2E73726563FE
S11300000C9456000C9460000C9460000C946000F6
S11300100C9460000C9460000C9460000C946000DC
S11300200C9460000C9460000C9460000C946000CC
S11300300C9460000C9460000C9460000C946000BC
S11300400C9460000C9460000C9460000C946000AC
S11300500C9460000C9460000C9460000C9460009C
S11300600C9460000C9460000C9460000C9460008C
S11300700C9460000C9460000C9460000C9460007C
S11300800C9460000C9460000C9460000C9460006C
S11300900C9460000C9460000C9460000C9460005C
S11300A00C9460000C9460000C94600011241FBE3A
S11300B0CFEFCDBFDFE2DEBF0E946E000C948B0059
S11300C00C940000E0E4F6E092E0918321E02183C7
S11300D080E2818326839683868308950E9462004A
S11300E0E0E4F6E091E082E02FE33DE043E02150DC
S11300F030404040E1F700C00000968385832FE341
S11301003DE043E0215030404040E1F700C00000B2
S10D011095838683E9CFF894FFCFAE
S9030000FC
