:100000000C9456000C9473000C9473000C947300C1
:100010000C9473000C9473000C9473000C94DE0128
:100020000C94E8010C9473000C9473000C9473000E
:100030000C946D010C9473000C9473000C94730079
:100040000C9473000C9473000C9473000C94730064
:100050000C9473000C9473000C9473000C94730054
:100060000C9473000C9473000C9473000C94730044
:100070000C9473000C9473000C9419010C9473008D
:100080000C9473000C9473000C9473000C94730024
:100090000C9473000C9473000C9473000C94730014
:1000A0000C9473000C9473000C94730011241FBE05
:1000B000CFEFCDBFDFE2DEBF10E2A0E0B0E2E2E0D2
:1000C000FDE002C005900D92A63BB107D9F720E2F2
:1000D000A6EBB0E201C01D92AB3CB207E1F70E9473
:1000E0000D030C947F060C940000CF93DF93A0E0E7
:1000F000B2E082E111968C93119780E212968C9374
:10010000129713961C92139787E014968C9314976A
:10011000CAECD1E082E08883E0E2F0E0E49118826A
:100120001C96EC931C978883E1E2F0E0E49118823E
:100130001D96EC931D97EFE7FCE03197F1F700C0B7
:10014000000090968C93909781E491968C93919770
:1001500092961C92929781E08C93DF91CF910895B3
:10016000E0E5F0E08BE48283808188608083818198
:1001700083FD09C0A0E4B6E092E015969C93159724
:10018000818183FFFACF82E08093460688ED84BFA9
:10019000E0E5F0E088EC8583808180618083818167
:1001A00084FD09C0A0E4B6E092E015969C931597F3
:1001B000818184FFFACF82E08093460688ED84BF78
:1001C000E0E4F0E0108284BF84E080830895CF9360
:1001D000DF93E0E4F6E082E0818391E0918330E216
:1001E000318324E0228348E0428348E1428B438B01
:1001F000A0E0B6E012969C93129712968C931297F9
:10020000C0E6D6E09A838A832A8312962C931297AB
:1002100019968C9319971A962C931A9752962C919B
:10022000529752962C93968386833683DF91CF9193
:1002300008951F920F920FB60F9211248F939F93E0
:10024000EF93FF93F89484E080930C068091B7209D
:10025000813091F48091080682FD11C025C0809103
:10026000080682FF13C020C08FE396E00197F1F7E4
:1002700000C0000078941CC0882389F315C0109238
:100280000804109209041092B720EECF8091080460
:1002900090910904E6EBF0E284839583868197814F
:1002A000019686839783E0CF82E080934506DCCF7A
:1002B000FF91EF919F918F910F900FBE0F901F9024
:1002C0001895E0E0F8E087E0808389E09DE386A36D
:1002D00097A3118281E0868308951F920F920FB633
:1002E0000F9211242F933F934F935F936F937F93BC
:1002F0008F939F93AF93EF93FF932091C120309101
:10030000C2204091C3205091C4206091C5207091BB
:10031000C6208091C7209091C820A1E00E943E068F
:100320002093C1203093C2204093C3205093C42017
:100330006093C5207093C6208093C7209093C820F7
:10034000E0E0F8E084858160848781E08093C020CC
:10035000FF91EF91AF919F918F917F916F915F91FD
:100360004F913F912F910F900FBE0F901F901895B6
:10037000E0E0F4E089E0808385E08283A0E5B0E0FE
:100380008C9184608C938FE79CE00197F1F700C01B
:100390000000A0E4B0E08CE013968C9313971396C2
:1003A0008C911397816013968C9380E090E48487FE
:1003B000958780E09FEF8287938708951F920F9221
:1003C0000FB60F9211240F900FBE0F901F9018952B
:1003D0001F920F920FB60F9211248F939F93EF935A
:1003E000FF938091C9209091CA20892B41F081E030
:1003F000809346061092C9201092CA2009C081E05D
:100400008093450681E090E08093C9209093CA20B4
:10041000E0E0F4E01086118682E083831092BA2037
:100420001092BB20FF91EF919F918F910F900FBE83
:100430000F901F901895E0E0F2E081E481A380A185
:10044000806880A38FE79CE00197F1F700C000006F
:10045000868180FFFDCFE0E0F2E081E0868384A129
:1004600095A10895E0E0F2E089E481A380A180688D
:1004700080A3868180FFFDCFE0E0F2E081E086830B
:1004800084A195A108952F923F924F925F926F920F
:100490007F928F929F92AF92BF92CF92DF92EF9214
:1004A000FF920F931F93CF93DF930F2EF4E66F2EDF
:1004B000712CF02D412C512C812C912CD0E0C0E0DE
:1004C000212C312C0E941B02B92EA82E192F110F9E
:1004D000110B242D352D482D592D6D2F7C2F822D5C
:1004E000932DC12ED12EE12EF12E012F0E94350623
:1004F000422E532E842E952ED62FC72F282E392EDE
:1005000081E0681A7108F1F60F2EF4E6AF2EF02D97
:10051000B12CC12CD12CE12CF12C00E010E0242DC9
:10052000352D482D592D6D2F7C2F822D932D0E9416
:10053000D805622F732F80E090E00E94B90429E86B
:100540003DE04DE95AE30E94470524E637E649E1DC
:100550005BE30E94DB0320E030E048EC52E40E94C1
:10056000470520E030E048E452E40E94DA03DF91DE
:10057000CF911F910F91FF90EF90DF90CF90BF90A0
:10058000AF909F908F907F906F905F904F903F9033
:100590002F900895CF92DF92EF92FF92CF93DF9347
:1005A000C2E3D0E0C12CD12C76010E943202092E88
:1005B000000CAA0BBB0BC80ED91EEA1EFB1E21970E
:1005C000A1F7C701B60122E330E040E050E00E940D
:1005D000B405B90180E090E00E94B90429E83DE04B
:1005E0004DE95AE30E94470524E637E649E15BE31B
:1005F0000E94DB0329E23CE54FE05FE30E944704F1
:1006000023E333E34FE151E40E94DB03DF91CF9119
:10061000FF90EF90DF90CF9008950E94E7000E9436
:10062000B0000E94C3030E9461010E9475000E94F5
:10063000B801E0EAF0E08281816082838281826099
:1006400082837894E6EBF0E281E081831282138268
:100650001682178280E090E20E949C0383E190E280
:100660000E949C0386E290E20E949C0389E290E251
:100670000E949C0382E080934606C0ECD8E00F2ED7
:10068000F0E48F2EF6E09F2EF02D6894772475F815
:10069000E12C6894FF24F3F806EB10E20F2EF9E04A
:1006A000AF2EFDE3BF2EF02D0F2EF5E3CF2EFCE095
:1006B000DF2EF02D8FE39FE10197F1F700C00000DE
:1006C0008981882354F48881893719F4F40175826B
:1006D00004C08E3611F4F40176828091C020882304
:1006E00049F31092C020F70110A211A20E94430208
:1006F0000E94CA0282E990E20E949C03F80186816E
:1007000097810E94AC0381EA90E20E949C03F80169
:10071000848195810E94AC038FE890E20E949C0343
:10072000F401808583FD04C0F701C6A2D7A2C2CF21
:10073000F701A6A2B7A2BECFFC012081222359F067
:10074000DC011196E0ECF8E0918195FFFDCF20836C
:100750002D912111F9CF0895CF93DF93CDB7DEB757
:100760006497CDBFDEBF4AE0BE016F5F7F4F0E943E
:100770004A06CE0101960E949C036496CDBFDEBF5F
:10078000DF91CF910895E0E4F6E080E8818380E492
:100790008283868580618687E0ECF8E083E084834D
:1007A00082E286831782838180618383838188606C
:1007B000838308955058BB27AA270E94F2030C9404
:1007C0000D050E94FF0438F00E94060520F039F460
:1007D0009F3F19F426F40C94FC040EF4E095E7FB1B
:1007E0000C94F604E92F0E941E0558F3BA1762070D
:1007F00073078407950720F079F4A6F50C9440055B
:100800000EF4E0950B2EBA2FA02D0B01B90190012B
:100810000C01CA01A0011124FF27591B99F0593F6F
:1008200050F4503E68F11A16F040A22F232F342FB7
:100830004427585FF3CF469537952795A795F04005
:100840005395C9F77EF41F16BA0B620B730B840B1A
:10085000BAF09150A1F0FF0FBB1F661F771F881FD2
:10086000C2F70EC0BA0F621F731F841F48F487952A
:1008700077956795B795F7959E3F08F0B0CF93951C
:10088000880F08F09927EE0F9795879508950E9495
:100890005B040C940D050E94060558F00E94FF04AD
:1008A00040F029F45F3F29F00C94F60451110C94A8
:1008B00041050C94FC040E941E0568F39923B1F3D2
:1008C000552391F3951B550BBB27AA276217730776
:1008D000840738F09F5F5F4F220F331F441FAA1F0A
:1008E000A9F335D00E2E3AF0E0E832D091505040C6
:1008F000E695001CCAF72BD0FE2F29D0660F771F74
:10090000881FBB1F261737074807AB07B0E809F059
:10091000BB0B802DBF01FF2793585F4F3AF09E3FDE
:10092000510578F00C94F6040C9441055F3FE4F314
:10093000983ED4F3869577956795B795F7959F5F21
:10094000C9F7880F911D9695879597F90895E1E06D
:10095000660F771F881FBB1F621773078407BA07CC
:1009600020F0621B730B840BBA0BEE1F88F7E09527
:100970000895E89409C097FB3EF490958095709592
:1009800061957F4F8F4F9F4F9923A9F0F92F96E9DB
:10099000BB279395F695879577956795B795F11150
:1009A000F8CFFAF4BB0F11F460FF1BC06F5F7F4FED
:1009B0008F4F9F4F16C0882311F096E911C07723FF
:1009C00021F09EE8872F762F05C0662371F096E808
:1009D000862F70E060E02AF09A95660F771F881FD7
:1009E000DAF7880F9695879597F9089597F99F6795
:1009F00080E870E060E008959FEF80EC08950024A7
:100A00000A941616170618060906089500240A9473
:100A100012161306140605060895092E0394000CF9
:100A200011F4882352F0BB0F40F4BF2B11F460FF88
:100A300004C06F5F7F4F8F4F9F4F089557FD9058B1
:100A4000440F551F59F05F3F71F04795880F97FB92
:100A5000991F61F09F3F79F087950895121613064C
:100A60001406551FF2CF4695F1DF08C0161617067B
:100A70001806991FF1CF86957105610508940895B0
:100A8000E894BB2766277727CB0197F908950E9442
:100A90005A050C940D050E94FF0438F00E940605CB
:100AA00020F0952311F00C94F6040C94FC0411240E
:100AB0000C9441050E941E0570F3959FC1F3950F9C
:100AC00050E0551F629FF001729FBB27F00DB11DD2
:100AD000639FAA27F00DB11DAA1F649F6627B00D62
:100AE000A11D661F829F2227B00DA11D621F739F4B
:100AF000B00DA11D621F839FA00D611D221F749F59
:100B00003327A00D611D231F849F600D211D822F9F
:100B1000762F6A2F11249F5750409AF0F1F08823C6
:100B20004AF0EE0FFF1FBB1F661F771F881F9150F3
:100B30005040A9F79E3F510580F00C94F6040C94A8
:100B400041055F3FE4F3983ED4F38695779567952A
:100B5000B795F795E7959F5FC1F7FE2B880F911D1D
:100B60009695879597F90895A1E21A2EAA1BBB1BAB
:100B7000FD010DC0AA1FBB1FEE1FFF1FA217B30769
:100B8000E407F50720F0A21BB30BE40BF50B661F7F
:100B9000771F881F991F1A9469F760957095809543
:100BA00090959B01AC01BD01CF010895689401C0EF
:100BB000E8948F929F92CF93DF930E94E405DF9198
:100BC000CF919F908F90089588249924F401E40197
:100BD000B0E49F93AA279A158B049C04ED05FE05AB
:100BE000CF05D007A10798F4AD2FDC2FCF2FFE2F14
:100BF000E92D982C892E982F872F762F652F542F2B
:100C0000432F322F2227B85031F7BF9127C01B2E18
:100C1000BF91BB27220F331F441F551F661F771F2D
:100C2000881F991F881C991CEE1FFF1FCC1FDD1FFA
:100C3000AA1FBB1F8A149B04EC05FD05CE05DF052A
:100C4000A007B10748F08A189B08EC09FD09CE09F6
:100C5000DF09A00BB10B21601A94E1F62EF4940188
:100C6000AF01BE01CD01000C08952A0D3B1D4C1DA6
:100C70005D1D6E1D7F1D801F911F08950024A7FD1F
:100C800000942A0F301D401D501D601D701D801DD9
:100C9000901D0895BB274A3031F4992322F4BDE218
:100CA000909581959F4F0C945606BB27FB015527C5
:100CB000AA27880F991FAA1FA41710F0A41B8395B9
:100CC0005051B9F7A05DAA3308F0A95DA193009730
:100CD00079F7B111B1931192CB010C946F06DC013D
:100CE000FC01672F71917723E1F7329704C07C9163
:100CF0006D9370836291AE17BF07C8F30895F8949F
:020D0000FFCF23
:100D0200235B494E495420524F5353205044425D75
:100D12000A0D00234669726D7761726520766572ED
:100D220073696F6E20002E31000A0D234D73672008
:100D3200666F726D61743A20456C656374726F6E92
:100D4200696373204261747420566F6C74207C2036
:100D520052656172204261747420566F6C74207CFB
:100D62002045626F782054656D706572617475728A
:100D720065207C2035765F5359532043757272206B
:100D82007C2035765F436F6D702043757272200A46
:100D92000D00525353492053616D706C65733A20B4
:100DA20000095253534920436F756E742056616C8B
:060DB20075653A20000007
:00000001FF
