S0190000506F776572446973747269627574696F6E2E73726563FE
S11300000C9456000C9473000C9473000C947300BD
S11300100C9473000C9473000C9473000C943D02C4
S11300200C9447020C9473000C9473000C947300AA
S11300300C94CC010C9473000C9473000C94730016
S11300400C9473000C9473000C9481010C94730051
S11300500C9473000C9473000C9473000C94730050
S11300600C9473000C9473000C9473000C94730040
S11300700C9473000C9473000C9419010C94730089
S11300800C9473000C9473000C9473000C94E500AE
S11300900C94B2010C9473000C94A3010C9473009F
S11300A00C9473000C9473000C94730011241FBE01
S11300B0CFEFCDBFDFE2DEBF10E2A0E0B0E2E0EFC1
S11300C0F6E102C005900D92AE3BB107D9F720E2EC
S11300D0AEEBB0E201C01D92A43DB207E1F70E946D
S11300E07A030C94760B0C940000E0E5F0E08BE4CA
S11300F08283808188608083818183FD09C0A0E43C
S1130100B6E092E015969C931597818183FFFACF10
S113011082E08093460688ED84BFE0E5F0E088EC59
S11301208583808180618083818184FD09C0A0E40E
S1130130B6E092E015969C931597818184FFFACFDF
S113014082E08093460688ED84BFE0E4F0E010820C
S113015084BF84E080830895CF93DF93E0E4F6E0E6
S113016082E0818391E0918320E2218334E0328331
S113017048E0428348E1428B438BC0E0D6E09A8357
S11301808A83A0E6B6E012969C93129712968C93FB
S1130190129712963C9312973A8330E112963C934D
S11301A0129711962C93119719968C9319971A9666
S11301B03C931A9754969C935497968386832683EC
S11301C016962C93DF91CF9108951F920F920FB63C
S11301D00F9211248F939F9380E180936C068091FA
S11301E00020813081F4109260081092610810920E
S11301F0002087EC90E00197F1F700C0000082E056
S1130200809374060FC08091600890916108880FF4
S1130210991F8093BE209093BF2081E0809300209B
S1130220809374069F918F910F900FBE0F901F9033
S113023018951F920F920FB60F9211248F939F93CC
S1130240EF93FF93F89484E080930C068091CB2085
S1130250813061F48091080682FD0BC01FC080913B
S1130260080682FF0DC01AC078941CC08823B9F315
S113027015C010920804109209041092CB20F4CFF8
S11302808091080490910904EAECF0E28483958358
S113029086819781019686839783E6CF82E0809357
S11302A04506E2CFFF91EF919F918F910F900FBE82
S11302B00F901F901895E0E0F8E087E0808389E0D4
S11302C09DE386A397A3118281E08683E0E4F8E0AE
S11302D085E08083118220EE3EE226A337A392E0DC
S11302E09683E0E4F9E08083118280E197E286A3BB
S11302F097A383E08683878386EB93E080A791A707
S113030008951F920F920FB60F9211248F939F930B
S1130310EF93FF93E0E4F8E084858160848781E0D3
S113032080930020809374068CED95E08093BE202A
S11303309093BF20FF91EF919F918F910F900FBEEB
S11303400F901F9018951F920F920FB60F921124C1
S11303508F9380E2809366068F910F900FBE0F906B
S11303601F9018951F920F920FB60F9211248F931E
S1130370EF93FF9380E280936506E0E4F9E08485DF
S11303808160848710A211A2FF91EF918F910F9049
S11303900FBE0F901F9018951F920F920FB60F92D9
S11303A011242F933F934F935F936F937F938F9376
S11303B09F93AF93EF93FF932091C0203091C1207E
S11303C04091C2205091C3206091C4207091C520F7
S11303D08091C6209091C720A1E00E9463082093D9
S11303E0C0203093C1204093C2205093C320609317
S11303F0C4207093C5208093C6209093C720E0E06A
S1130400F8E084858160848781E08093C820FF912F
S1130410EF91AF919F918F917F916F915F914F91E8
S11304203F912F910F900FBE0F901F901895E0E011
S1130430F4E089E0808385E08283A0E5B0E08C91DC
S113044084608C938FE79CE00197F1F700C0000073
S1130450A0E4B0E08CE013968C93139713968C91E0
S11304601397816013968C9380E090E4848795873A
S113047080E09FEF8287938708951F920F920FB6B3
S11304800F9211240F900FBE0F901F9018951F927A
S11304900F920FB60F9211248F93EF93FF93E0E026
S11304A0F4E01086118682E083831092CE201092AD
S11304B0CF20FF91EF918F910F900FBE0F901F905F
S11304C018950895AAECB1E092E09C93E82FF0E02F
S11304D084911C920895CF93DF93C0E0D2E082E12F
S11304E0898380E28A831B8287E08C8380E20E9476
S11304F062028C8781E20E9462028D878FE79CE012
S11305000197F1F700C0000082E088A381E489A389
S11305101AA281E08883DF91CF910895E0E0F2E0B0
S113052081E481A380A1806880A38FE79CE0019788
S1130530F1F700C00000868180FFFDCFE0E0F2E02B
S113054081E0868384A195A10895E0E0F2E089E446
S113055081A380A1806880A3868180FFFDCFE0E035
S1130560F2E081E0868384A195A108952F923F92C1
S11305704F925F926F927F928F929F92AF92BF92AF
S1130580CF92DF92EF92FF920F931F93CF93DF935B
S11305900F2EF4E66F2E712CF02D412C512C812C52
S11305A0912CD0E0C0E0212C312C0E948E02B92E77
S11305B0A82E192F110F110B242D352D482D592D2F
S11305C06D2F7C2F822D932DC12ED12EE12EF12E55
S11305D0012F0E945A08422E532E842E952ED62F78
S11305E0C72F282E392E81E0681A7108F1F60F2ED4
S11305F0F4E6AF2EF02DB12CC12CD12CE12CF12C32
S113060000E010E0242D352D482D592D6D2F7C2F21
S1130610822D932D0E94FD07622F732F80E090E0BE
S11306200E947E0629E83DE04DE95AE30E940C074A
S113063024E637E649E15BE30E946A0520E030E006
S113064048E452E40E940C07DF91CF911F910F916F
S1130650FF90EF90DF90CF90BF90AF909F908F90DE
S11306607F906F905F904F903F902F900895CF921E
S1130670DF92EF92FF92CF93DF93C2E3D0E0C12CDD
S1130680D12C76010E94A502092E000CAA0BBB0BEB
S1130690C80ED91EEA1EFB1E2197A1F7C701B60199
S11306A022E330E040E050E00E94D907B90180E045
S11306B090E00E947E0629E83DE04DE95AE30E945D
S11306C00C0724E637E649E15BE30E946A0529E268
S11306D03CE54FE05FE30E94D60523E333E34FE1BB
S11306E051E40E946A05DF91CF91FF90EF90DF9073
S11306F0CF900895CF93DF93CDB7DEB72897CDBFC2
S1130700DEBF0E94AC000E9475000E9440050E945A
S11307105B010E946B020E9417020E946102E0EAE0
S1130720F0E082818160828382818260828382811F
S1130730846082837894EAECF0E281E0818312821F
S113074013821682178281E090E20E94BF0484E142
S113075090E20E94BF0487E290E20E94BF048AE212
S113076090E20E94BF040F2EF0ECEF2EF8E0FF2E73
S1130770F02D0F2EF0E46F2EF6E07F2EF02D68940E
S1130780992495F80F2EF0E4CF2EF9E0DF2EF02D0A
S1130790A12C6894BB24B3F8412C6894552452F8D6
S11307A000E016E08FE39FE10197F1F700C000003D
S11307B0F7018181882354F48081893719F4F30186
S11307C0958204C08E3611F4F30196826091BE20A6
S11307D07091BF2080E090E00E947E0620E030E02F
S11307E040E05FE30E940C070E944F06F60160A7F9
S11307F071A78091C8208823A9F21092C820F5011E
S113080010A211A20E94B60269837A838B839C830F
S11308100E9437036D837E838F839887F20110864D
S113082011861092CB208FE891E00197F1F700C078
S11308300000F201808591858231914020F4F80115
S1130840808582FDF0CF8FE891E00197F1F700C039
S11308500000F201808591858231914020F4F801F5
S1130860808582FFF0CFF201108611868FE891E037
S11308700197F1F700C00000F20180859185823173
S1130880914020F4F801808582FDF0CFF20180854B
S113089091850F2EFAEC2F2EF0E23F2EF02DF10170
S11308A0848395832481358144E6429FC001439F1C
S11308B0900D112461E171E00E94C5076083868177
S11308C09781019686839783848195816D817E814A
S11308D08F8198850E94E60483EB90E20E94BF0416
S11308E060E070E0CB010E94E60483EB90E20E949A
S11308F0BF0469817A818B819C810E94E60483EB29
S113090090E20E94BF0460E070E0CB010E94E60424
S113091083EB90E20E94BF0460E070E0CB010E9490
S1130920E60483EB90E20E94BF04F101808190E031
S11309300E94CF04F1018081811104C080E090E025
S11309400E94CF0483EB90E20E94BF048091C920EF
S113095090E00E94CF0480EB90E20E94BF04F30178
S1130960808583FD06C085E39CE0F50186A397A3FB
S113097019CF89E09DE3F50186A397A313CFFC016A
S11309802081222359F0DC011196E0ECF8E09181FA
S113099095FFFDCF20832D912111F9CF0895CF9399
S11309A0DF93CDB7DEB76497CDBFDEBF4AE0BE01AB
S11309B06F5F7F4F0E946F08CE0101960E94BF04B3
S11309C06496CDBFDEBFDF91CF9108958F929F9241
S11309D0AF92BF92CF92DF92EF92FF920F931F9349
S11309E0CF93DF93CDB7DEB7C456D109CDBFDEBFF9
S11309F04B015C010E9448066B017C01072E000C30
S1130A00880B990B0E9480069B01AC01C501B401BF
S1130A100E94690520E030E44CE156E40E940C0792
S1130A200E9479070E9448069B01772324F4222719
S1130A303327261B370B3F932F93DF92CF9285EBFF
S1130A4090E29F938F938E010F5F1F4F1F930F931D
S1130A500E949408C8010E94BF04CDBFDEBFCC59D8
S1130A60DF4FCDBFDEBFDF91CF911F910F91FF907C
S1130A70EF90DF90CF90BF90AF909F908F900895AC
S1130A80E0E4F6E040E8418330E432838685806127
S1130A908687E0ECF8E023E0248392E296831782D1
S1130AA0838180618383838188608383E0E6F6E0C9
S1130AB041833283868580618687E0ECF9E0248374
S1130AC09683178283818061838383818860838393
S1130AD008955058BB27AA270E9481050C94D2067A
S1130AE00E94C40638F00E94CB0620F039F49F3FE0
S1130AF019F426F40C94C1060EF4E095E7FB0C946B
S1130B00BB06E92F0E94E30658F3BA17620773077E
S1130B108407950720F079F4A6F50C9405070EF4E4
S1130B20E0950B2EBA2FA02D0B01B90190010C01F9
S1130B30CA01A0011124FF27591B99F0593F50F411
S1130B40503E68F11A16F040A22F232F342F442769
S1130B50585FF3CF469537952795A795F040539561
S1130B60C9F77EF41F16BA0B620B730B840BBAF031
S1130B709150A1F0FF0FBB1F661F771F881FC2F79C
S1130B800EC0BA0F621F731F841F48F487957795B0
S1130B906795B795F7959E3F08F0B0CF9395880F6A
S1130BA008F09927EE0F9795879508950E94EA0516
S1130BB00C94D2060E94CB0658F00E94C40640F062
S1130BC029F45F3F29F00C94BB0651110C940607DD
S1130BD00C94C1060E94E30668F39923B1F35523EC
S1130BE091F3951B550BBB27AA276217730784073C
S1130BF038F09F5F5F4F220F331F441FAA1FA9F3D2
S1130C0035D00E2E3AF0E0E832D091505040E695BF
S1130C10001CCAF72BD0FE2F29D0660F771F881F20
S1130C20BB1F261737074807AB07B0E809F0BB0B13
S1130C30802DBF01FF2793585F4F3AF09E3F510527
S1130C4078F00C94BB060C9406075F3FE4F3983EDF
S1130C50D4F3869577956795B795F7959F5FC9F710
S1130C60880F911D9695879597F90895E1E0660F91
S1130C70771F881FBB1F621773078407BA0720F00A
S1130C80621B730B840BBA0BEE1F88F7E095089573
S1130C900E944F066894B1110C94060708950E94AF
S1130CA0EB0688F09F5798F0B92F9927B751B0F009
S1130CB0E1F0660F771F881F991F1AF0BA95C9F7DC
S1130CC014C0B13091F00E940507B1E008950C946E
S1130CD00507672F782F8827B85F39F0B93FCCF321
S1130CE0869577956795B395D9F73EF49095809559
S1130CF0709561957F4F8F4F9F4F0895E89409C079
S1130D0097FB3EF490958095709561957F4F8F4F3A
S1130D109F4F9923A9F0F92F96E9BB279395F69550
S1130D20879577956795B795F111F8CFFAF4BB0FCE
S1130D3011F460FF1BC06F5F7F4F8F4F9F4F16C032
S1130D40882311F096E911C0772321F09EE8872FBC
S1130D50762F05C0662371F096E8862F70E060E078
S1130D602AF09A95660F771F881FDAF7880F9695F1
S1130D70879597F9089597F99F6780E870E060E098
S1130D8008959FEF80EC089500240A941616170620
S1130D9018060906089500240A9412161306140668
S1130DA005060895092E0394000C11F4882352F0CB
S1130DB0BB0F40F4BF2B11F460FF04C06F5F7F4F83
S1130DC08F4F9F4F089557FD9058440F551F59F06A
S1130DD05F3F71F04795880F97FB991F61F09F3F24
S1130DE079F087950895121613061406551FF2CF4D
S1130DF04695F1DF08C0161617061806991FF1CF9D
S1130E0086957105610508940895E894BB276627C3
S1130E107727CB0197F908950E941F070C94D206F7
S1130E200E94C40638F00E94CB0620F0952311F0EE
S1130E300C94BB060C94C10611240C9406070E9462
S1130E40E30670F3959FC1F3950F50E0551F629F21
S1130E50F001729FBB27F00DB11D639FAA27F00D0F
S1130E60B11DAA1F649F6627B00DA11D661F829F36
S1130E702227B00DA11D621F739FB00DA11D621F1B
S1130E80839FA00D611D221F749F3327A00D611D38
S1130E90231F849F600D211D822F762F6A2F11241A
S1130EA09F5750409AF0F1F088234AF0EE0FFF1F4D
S1130EB0BB1F661F771F881F91505040A9F79E3FA4
S1130EC0510580F00C94BB060C9406075F3FE4F3D5
S1130ED0983ED4F3869577956795B795F795E795FA
S1130EE09F5FC1F7FE2B880F911D9695879597F903
S1130EF008950E94AD0730F09F3710F40C94060754
S1130F000C9484070C949F07882371F4772321F0B1
S1130F109850872B762F07C0662311F499270DC0AC
S1130F209051862B70E060E02AF09A95660F771F47
S1130F30881FDAF7880F9695879597F908959F3F4C
S1130F4031F0915020F4879577956795B795880F80
S1130F50911D9695879597F908950E94EB06A0F048
S1130F60BEE7B91788F4BB279F3860F41616B11D85
S1130F70672F782F8827985FF7CF869577956795A1
S1130F80B11D93959639C8F30895AA1BBB1B51E173
S1130F9007C0AA1FBB1FA617B70710F0A61BB70BE5
S1130FA0881F991F5A95A9F780959095BC01CD018A
S1130FB00895A1E21A2EAA1BBB1BFD010DC0AA1F96
S1130FC0BB1FEE1FFF1FA217B307E407F50720F0AE
S1130FD0A21BB30BE40BF50B661F771F881F991F29
S1130FE01A9469F760957095809590959B01AC0172
S1130FF0BD01CF010895689401C0E8948F929F9237
S1131000CF93DF930E940908DF91CF919F908F9037
S1131010089588249924F401E401B0E49F93AA2755
S11310209A158B049C04ED05FE05CF05D007A10796
S113103098F4AD2FDC2FCF2FFE2FE92D982C892E7D
S1131040982F872F762F652F542F432F322F222747
S1131050B85031F7BF9127C01B2EBF91BB27220F79
S1131060331F441F551F661F771F881F991F881C35
S1131070991CEE1FFF1FCC1FDD1FAA1FBB1F8A1464
S11310809B04EC05FD05CE05DF05A007B10748F07C
S11310908A189B08EC09FD09CE09DF09A00BB10BE6
S11310A021601A94E1F62EF49401AF01BE01CD0142
S11310B0000C08952A0D3B1D4C1D5D1D6E1D7F1DEA
S11310C0801F911F08950024A7FD00942A0F301D4E
S11310D0401D501D601D701D801D901D0895BB276F
S11310E04A3031F4992322F4BDE2909581959F4FC3
S11310F00C947B08BB27FB015527AA27880F991F4F
S1131100AA1FA41710F0A41B83955051B9F7A05D32
S1131110AA3308F0A95DA193009779F7B111B193AF
S11311201192CB010C949F0AAEE0B0E0EAE9F8E03A
S11311300C94530B0D891E8986E08C8309831A83D2
S11311408FEF9FE78D839E83AE01475E5F4F6F896C
S1131150788DCE0101960E94B7082F813885F80159
S1131160E20FF31F10822E96E4E00C946C0BACE0BB
S1131170B0E0EDEBF8E00C94450B7C016B018A01C7
S1131180FC0116821782838181FFBDC1CE010196C5
S11311904C01F7019381F60193FD859193FF8191B1
S11311A06F01882309F4ABC1853239F493FD85912D
S11311B093FF81916F01853229F4B70190E00E9479
S11311C0AF0AE7CF512C312C20E02032A0F48B322F
S11311D069F030F4803259F0833269F420612CC014
S11311E08D3239F0803339F4216026C022602460C6
S11311F023C0286021C027FD27C030ED380F3A30C6
S113120078F426FF06C0FAE05F9E300D1124532EB9
S113121013C08AE0389E300D1124332E20620CC096
S11312208E3221F426FD6BC1206406C08C3611F485
S1131230206802C0883641F4F60193FD859193FF3E
S113124081916F018111C1CF982F9F7D9554933067
S113125028F40C5F1F4FFFE3F9830DC0833631F090
S1131260833771F0833509F05BC022C0F8018081B7
S113127089830E5F1F4F44244394512C540115C09D
S11312803801F2E06F0E711CF801A080B18026FFD6
S113129003C0652D70E002C06FEF7FEFC5012C879E
S11312A00E94940A2C0183012C852F77222E17C0CB
S11312B03801F2E06F0E711CF801A080B18026FFA6
S11312C003C0652D70E002C06FEF7FEFC5012C876E
S11312D00E94890A2C012C852068222E830123FC7C
S11312E01BC0832D90E048165906B0F4B70180E284
S11312F090E00E94AF0A3A94F4CFF50127FC85915F
S113130027FE81915F01B70190E00E94AF0A31107E
S11313103A94F1E04F1A51084114510471F7E5C0B1
S1131320843611F0893639F5F80127FF07C060814A
S11313307181828193810C5F1F4F08C0608171812C
S1131340072E000C880B990B0E5F1F4F2F76722E01
S113135097FF09C090958095709561957F4F8F4F49
S11313609F4F2068722E2AE030E0A4010E94E70A11
S1131370A82EA81844C0853729F42F7EB22E2AE05F
S113138030E025C0F22FF97FBF2E8F36C1F018F45C
S1131390883579F0B4C0803719F0883721F0AFC0B0
S11313A02F2F2061B22EB4FE0DC08B2D8460B82E79
S11313B009C024FF0AC09F2F9660B92E06C028E0FA
S11313C030E005C020E130E002C020E132E0F80165
S11313D0B7FE07C060817181828193810C5F1F4FCA
S11313E006C06081718180E090E00E5F1F4FA40110
S11313F00E94E70AA82EA818FB2DFF777F2E76FE01
S11314000BC0372D3E7FA51450F474FE0AC072FC45
S113141008C0372D3E7E05C0BA2C372D03C0BA2C28
S113142001C0B52C34FF0DC0FE01EA0DF11D808111
S1131430803311F4397E09C032FF06C0B394B394EB
S113144004C0832F867809F0B39433FD13C030FFB2
S113145006C05A2CB31418F4530C5B18B32CB314F1
S113146068F4B70180E290E03C870E94AF0AB3942D
S11314703C85F5CFB31410F43B1801C0312C34FF74
S113148012C0B70180E390E03C870E94AF0A3C851C
S113149032FF17C031FD03C088E790E002C088E541
S11314A090E0B7010CC0832F867859F031FF02C059
S11314B08BE201C080E237FD8DE2B70190E00E942B
S11314C0AF0AA51438F4B70180E390E00E94AF0A94
S11314D05A94F7CFAA94F401EA0DF11D8081B70163
S11314E090E00E94AF0AA110F5CF332009F451CE49
S11314F0B70180E290E00E94AF0A3A94F6CFF70178
S11315008681978102C08FEF9FEF2C96E2E10C94C5
S11315105E0BFC010590615070400110D8F7809576
S113152090958E0F9F1F0895FC01615070400190AB
S11315300110D8F7809590958E0F9F1F0895DC01B8
S1131540FC01672F71917723E1F7329704C07C91F6
S11315506D9370836291AE17BF07C8F308950F931C
S11315601F93CF93DF93FB01238121FD03C08FEFF2
S11315709FEF28C022FF16C0468157812481358100
S11315804217530744F4A081B1819D012F5F3F4F5F
S1131590208331838C93268137812F5F3F4F2683AD
S11315A0378310C0EB01092F182F0084F185E02D3B
S11315B00995892BE1F68E819F8101968E839F8305
S11315C0812F902FDF91CF911F910F910895FA01F0
S11315D0AA27283051F1203181F1E8946F936E7F6E
S11315E06E5F7F4F8F4F9F4FAF4FB1E03ED0B4E05F
S11315F03CD0670F781F891F9A1FA11D680F791FA0
S11316008A1F911DA11D6A0F711D811D911DA11DB0
S113161020D009F468943F912AE0269F11243019C0
S1131620305D3193DEF6CF010895462F4770405D5B
S11316304193B3E00FD0C9F7F6CF462F4F70405D0A
S11316404A3318F0495D31FD4052419302D0A9F765
S1131650EACFB4E0A6959795879577956795BA955F
S1131660C9F700976105710508959B01AC010A2E25
S113167006945795479537952795BA95C9F7620FFC
S1131680731F841F951FA01D08952F923F924F92A0
S11316905F926F927F928F929F92AF92BF92CF92FE
S11316A0DF92EF92FF920F931F93CF93DF93CDB707
S11316B0DEB7CA1BDB0BCDBFDEBF09942A8839888D
S11316C048885F846E847D848C849B84AA84B984D6
S11316D0C884DF80EE80FD800C811B81AA81B981E2
S11316E0CE0FD11DCDBFDEBFED010895F894FFCF1D
S11316F001235B494E495420524F535320504442D6
S11317005D0A0D00234669726D7761726520766506
S11317107273696F6E20002E32000A0D234D7367B9
S113172020666F726D61743A20456C656374726FE4
S11317306E696373204261747420566F6C74207CEC
S11317402052656172204261747420566F6C74205B
S11317507C2045626F782054656D70657261747584
S11317607265207C2035765F53595320437572721D
S1131770207C2035765F436F6D7020437572722034
S11317807C205854656E642052535349207C202297
S113179052656D6F746520496E70757422207C20CB
S11117A00A0D007C0025642E25303464000000
S9030000FC
